:020000040800F2
:10000000000001209D020008A3020008A7020008CA
:10001000F1020008F50200083D030008000000009E
:100020000000000000000000000000008503000840
:1000300089030008000000008D030008DD2D000882
:10004000A3030008A9030008AF030008B5030008D4
:10005000BB030008C1030008C7030008CD03000864
:10006000D3030008D9030008DF030008E5030008F4
:10007000EB030008F1030008F7030008FD03000884
:1000800003040008090400080F0400081504000810
:100090001B04000821040008270400082D040008A0
:1000A00033040008390400083F0400084504000830
:1000B0004B04000879160008570400085D04000886
:1000C00063040008690400086F0400087504000850
:1000D0007B04000881040008870400088D040008E0
:1000E00093040008990400089F040008A504000870
:1000F000AB040008B1040008B7040008BD04000800
:10010000C3040008C9040008CF040008D50400088F
:10011000DB040008E104000855160008ED0400089F
:10012000F3040008F9040008FF04000805050008AE
:100130000B05000811050008170500081D0500083B
:1001400023050008290500082F05000835050008CB
:100150003B05000841050008470500084D0500085B
:1001600053050008590500085F05000865050008EB
:100170006B05000871050008770500080000000005
:100180007D0500088305000800B583B001F04EF935
:10019000304B314A1360314A1360314B314A324996
:1001A0008B4204D21168196004330432F7E72A4BFA
:1001B0001A682E4B9A4200D0FEE7284B1A682C4B47
:1001C0009A42F9D1234B2B4A13602B4A13602B4BD5
:1001D00002E000221A600433294A9342F9D3254BE6
:1001E0001B6813B9244B1B6803B1FEE701F02AF921
:1001F000694601A801F0F6F8224C234BE41AA4103A
:100200000025AC4214DC214C214BE41AA41000253B
:10021000AC4213DC0099019802F0E2F905461D4C4E
:100220001D4BE41AA410002C0EDC284601F0B6F891
:10023000154B53F8253098470135E2E7144B53F836
:10024000253098470135E3E7013C134B53F8243040
:100250009847E8E7BABADECA00000020D8000020BC
:10026000000000204CA40008DC0000207856341266
:1002700032547698DC00002080050020DC0000204D
:1002800084050020B0050008B0050008B00500088E
:10029000B0050008B0050008B005000808B5FFF774
:1002A00073FF00BEFEE71EF0040F0CBFEFF30880E3
:1002B000EFF309807146374A10472DE9F04182B0CB
:1002C00004468846084B5E6B9F6B9D6A074801F0A9
:1002D00091F8CDF800803B4632462946204601F091
:1002E000B5F800BEFEE700BF00ED00E06044000886
:1002F00000BEFEE71EF0040F0CBFEFF30880EFF323
:1003000009807146244A10472DE9F04182B0044625
:100310008846084B5E6B9F6B9D6A074801F06AF840
:10032000CDF800803B4632462946204601F08EF843
:1003300000BEFEE700ED00E0704400081EF0040F70
:100340000CBFEFF30880EFF309807146134A1047A2
:100350002DE9F04182B004468846084B5E6B9F6BE6
:100360009D6A074801F046F8CDF800803B463246CA
:100370002946204601F06AF800BEFEE700ED00E0E5
:100380007C44000800BEFEE700BEFEE700BEFEE7BC
:1003900070470000BB020008090300085103000871
:1003A000FEE708B5FFF7FCFF08B5FFF7F9FF08B552
:1003B000FFF7F6FF08B5FFF7F3FF08B5FFF7F0FF0B
:1003C00008B5FFF7EDFF08B5FFF7EAFF08B5FFF73F
:1003D000E7FF08B5FFF7E4FF08B5FFF7E1FF08B551
:1003E000FFF7DEFF08B5FFF7DBFF08B5FFF7D8FF23
:1003F00008B5FFF7D5FF08B5FFF7D2FF08B5FFF73F
:10040000CFFF08B5FFF7CCFF08B5FFF7C9FF08B568
:10041000FFF7C6FF08B5FFF7C3FF08B5FFF7C0FF3A
:1004200008B5FFF7BDFF08B5FFF7BAFF08B5FFF73E
:10043000B7FF08B5FFF7B4FF08B5FFF7B1FF08B580
:10044000FFF7AEFF08B5FFF7ABFF08B5FFF7A8FF52
:1004500008B5FFF7A5FF08B5FFF7A2FF08B5FFF73E
:100460009FFF08B5FFF79CFF08B5FFF799FF08B598
:10047000FFF796FF08B5FFF793FF08B5FFF790FF6A
:1004800008B5FFF78DFF08B5FFF78AFF08B5FFF73E
:1004900087FF08B5FFF784FF08B5FFF781FF08B5B0
:1004A000FFF77EFF08B5FFF77BFF08B5FFF778FF82
:1004B00008B5FFF775FF08B5FFF772FF08B5FFF73E
:1004C0006FFF08B5FFF76CFF08B5FFF769FF08B5C8
:1004D000FFF766FF08B5FFF763FF08B5FFF760FF9A
:1004E00008B5FFF75DFF08B5FFF75AFF08B5FFF73E
:1004F00057FF08B5FFF754FF08B5FFF751FF08B5E0
:10050000FFF74EFF08B5FFF74BFF08B5FFF748FFB1
:1005100008B5FFF745FF08B5FFF742FF08B5FFF73D
:100520003FFF08B5FFF73CFF08B5FFF739FF08B5F7
:10053000FFF736FF08B5FFF733FF08B5FFF730FFC9
:1005400008B5FFF72DFF08B5FFF72AFF08B5FFF73D
:1005500027FF08B5FFF724FF08B5FFF721FF08B50F
:10056000FFF71EFF08B5FFF71BFF08B5FFF718FFE1
:1005700008B5FFF715FF08B5FFF712FF08B5FFF73D
:080580000FFF08B5FFF70CFFA7
:100588004CA4000800000020DC0000204CA4000857
:100598000000001000000010DC000020840500208E
:0805A80000000010000000102B
:1005B00008B501F0E9FE084B1B784BB1064B002251
:1005C0001A704FF47A720021044802F09BFC08BDB7
:1005D00002F01AFAF5E700BFE0000020B1050008BC
:1005E00008B502F003FA08BD08B502F0FFF902F001
:1005F00019FA032002F0DEF9024802F0C7FC00F00D
:10060000C3FD08BDB105000810B5002407E0094B83
:1006100053F82410204602F077FF0134E4B2102C86
:10062000F5D9054B01221A70C8220021034802F0B7
:1006300069FC10BDB83F0008E0000020B1050008CB
:10064000044B1B78044AD25C12B90133014A13707F
:10065000704700BFE1000020FC3F0008054B1B78FD
:10066000054AD25C012A00D070470133014A137059
:10067000FAE700BFE1000020FC3F0008054B1B78B3
:10068000054AD25C022A00D070470133014A137038
:10069000FAE700BFE1000020FC3F0008054B1B7893
:1006A000054AD25C032A00D070470133014A137017
:1006B000FAE700BFE1000020FC3F0008054B1B7873
:1006C000054AD25C042A00D070470133014A1370F6
:1006D000FAE700BFE1000020FC3F0008054B1B7853
:1006E000054AD25C052A00D070470133014A1370D5
:1006F000FAE700BFE1000020FC3F0008054B1B7833
:10070000054AD25C062A00D070470133014A1370B3
:10071000FAE700BFE1000020FC3F0008054B1B7812
:10072000054AD25C072A00D070470133014A137092
:10073000FAE700BFE1000020FC3F0008054B1B78F2
:10074000054AD25C082A00D070470133014A137071
:10075000FAE700BFE1000020FC3F0008054B1B78D2
:10076000054AD25C092A00D070470133014A137050
:10077000FAE700BFE1000020FC3F0008054B1B78B2
:10078000054AD25C0A2A00D070470133014A13702F
:10079000FAE700BFE1000020FC3F0008054B1B7892
:1007A000054AD25C0B2A00D070470133014A13700E
:1007B000FAE700BFE1000020FC3F0008054B1B7872
:1007C000054AD25C0C2A00D070470133014A1370ED
:1007D000FAE700BFE1000020FC3F0008054B1B7852
:1007E000054AD25C0D2A00D070470133014A1370CC
:1007F000FAE700BFE1000020FC3F0008054B1B7832
:10080000054AD25C0F2A00D070470133014A1370A9
:10081000FAE700BFE1000020FC3F0008054B1B7811
:10082000054AD25C102A00D070470133014A137088
:10083000FAE700BFE1000020FC3F000810B5084CBB
:100840002378084AD05C01F033FB2378112B00D9C0
:1008500010BDC8220021044802F054FBF8E700BF95
:10086000E1000020FC3F00083D08000808B5094BE6
:100870001B78094AD25C0E2A02D0112B04D008BD85
:100880000133044A1370FAE7044802F07FFB00F0DA
:100890007BFCF4E7E1000020FC3F00083D08000875
:1008A00010B50024094B1C7007E0094B53F82410C5
:1008B000204602F029FE0134E4B2102CF5D9C822FA
:1008C0000021044802F01EFB10BD00BFE100002023
:1008D000104000083D08000808B512490A680132B6
:1008E000114BA3FB02035B0803EB4303D31A0B601A
:1008F000012B0ED043B1022B10D04FF47A7200219D
:100900000A4802F0FFFA08BD4FF4784001F00AFCF3
:10091000F3E74FF4FC6001F005FCEEE71F2001F067
:1009200001FCEAE7E4000020ABAAAAAAD908000863
:1009300008B502F05BF808BD08B502F057F80348A7
:1009400002F024FB00F020FC08BD00BFD90800081D
:1009500010B50024094B1C6007E0094B53F8241024
:10096000204602F0D1FD0134E4B2102CF5D9C822A2
:100970000021044802F0C6FA10BD00BFE4000020C8
:1009800054400008D908000808B501F001FAC8224F
:100990000021024802F0B6FA08BD00BF890900082C
:1009A00008B502F023F808BD08B502F01FF80348A7
:1009B00002F0ECFA00F0E8FB08BD00BF890900086E
:1009C00010B5002407E0084B53F82410204602F02D
:1009D0009BFD0134E4B2102CF5D9C8220021034854
:1009E00002F090FA10BD00BF984000088909000885
:1009F00010B57D240CE04FF6FF720A21204601F06D
:100A0000AEFB4FF6FF72D221204601F0A8FB013465
:100A1000E02CF0DD0A240CE04FF6FF7221467D2029
:100A200001F09DFB4FF6FF722146E12001F097FB9C
:100A30000134D22CF0DD10BD38B50024114B1C6000
:100A40000125114B1D7001F041FC204601F0F0FB27
:100A5000FFF7CEFF0D4B986802F0A0FD0C4B1D6018
:100A600020460AE000EB800251000A4A0A440021B5
:100A7000D1540133092BF5DD0130132801DC0023AB
:100A8000F8E738BDB00100207005002010E000E05C
:100A900004000020E800002010B590F90130013377
:100AA00003EB83035C00037803EB83035800C0B2BD
:100AB0007D300A4604F0FE01C0B201F062FB10BDB9
:100AC00030B583B00546002418E00E4A117892F93B
:100AD000013003EB810304EB83030B4A32F813303C
:100AE000DAB20C328DF804201B0A0C338DF8053075
:100AF000294601A8FFF7D0FF013464B2032CE4DDDE
:100B000003B030BD74050020E040000870B582B02D
:100B100005460E46002419E02A7895F9013003EBCA
:100B2000820304EB83030B4A32F81310AA7852FABB
:100B300081F28DF80420EB7803EB11238DF805305A
:100B4000314601A8FFF7A8FF013464B2032CE3DDAE
:100B500002B070BDE040000810B483B002AC24F8CD
:100B6000040D1A7022885A80597003B010BC704767
:100B70000022032A2BDC30B482B0017890F90130D6
:100B800003EB810302EB8303124931F8131043880E
:100B9000ADF804309DF9053041F3072423440133B7
:100BA0009DF9044044FA81F103EB83050A4C04EB00
:100BB0004504615649B9132B07DC013252B2032AAE
:100BC000DBDD002002B030BC70470120FAE70020D6
:100BD000704700BFE0400008E800002010B5044660
:100BE0000021FFF793FF2046FFF7C2FF18B994F9E1
:100BF00003300133E3704FF6FF712046FFF786FFA5
:100C000010BD000008B50248FFF7E8FF08BD00BFAF
:100C10007805002010B582B0204C2046FFF7DEFF9B
:100C20002046FFF7A5FFA8B3002229E01B4804785F
:100C300090F901301A4903EB840302EB830311F9A5
:100C400013408DF8004001EB430393F901308DF818
:100C500001304388ADF804309DF905109DF801304E
:100C600041FA83F39DF904009DF8001040FA81F1E8
:100C700003EB830358000B4B0344012058540244F8
:100C8000032AD3DD084B1B68B3F1FF3F04D0064BAA
:100C900001221A6002B010BDFEE700BF78050020F7
:100CA000E0400008E80000200400002000210329A3
:100CB0002BDC10B483B0027890F9013003EB82038F
:100CC00001EB8303124A32F813304288ADF8042056
:100CD0009DF9052043F3072422449DF9044044FA7A
:100CE00083F3013B02EB82020A4C04EB4202D25630
:100CF0004AB9002B07DB013149B20329DBDD0020B3
:100D000003B010BC70470120FAE70020704700BF15
:100D1000E0400008E800002010B504460021FFF77D
:100D2000F5FE2046FFF7C2FF18B994F90230013BE7
:100D3000A3704FF6FF712046FFF7E8FE10BD0000DC
:100D400008B50248FFF7E8FF08BD00BF780500209E
:100D5000002103292BDC10B483B0027890F9013014
:100D600003EB820301EB8303124A32F8133042880B
:100D7000ADF804209DF9052043F3072422449DF992
:100D8000044044FA83F3013302EB82020A4C04EB81
:100D90004202D2564AB9092B07DC013149B2032974
:100DA000DBDD002003B010BC70470120FAE7002013
:100DB000704700BFE0400008E800002010B504467E
:100DC0000021FFF7A3FE2046FFF7C2FF18B994F9F0
:100DD00002300133A3704FF6FF712046FFF796FEF5
:100DE00010BD000008B50248FFF7E8FF08BD00BFCE
:100DF0007805002010B483B04388ADF8043000219A
:100E000003292BDC047890F9013001335A4203F0B6
:100E1000030302F0030258BF534203EB840301EBC8
:100E20008303104A32F81330ADF800309DF90420E6
:100E300042FA83F2092A0FD89DF901309DF9054045
:100E40002344132B08D803EB8303074C04EB430321
:100E50009B560BB90131D3E7012000E0002003B01D
:100E600010BC7047E0400008E800002010B50446C0
:100E70000021FFF74BFE2046FFF7BCFF50B994F965
:100E8000013001335A4203F0030302F0030258BF5A
:100E9000534263704FF6FF712046FFF737FE10BDD7
:100EA00008B50248FFF7E2FF08BD00BF7805002043
:100EB00070B582B0013845B22CE0013464B2092C1F
:100EC00026DC05EB85035A00154B13441B57002BFA
:100ED000F3D0134A05EB85014B001344002119554B
:100EE0006B1C03EB830358000244012313558DF858
:100EF000055002AE06F8044D3046FFF7CDFD6B1CE1
:100F00008DF805304FF6FF713046FFF7C5FDD4E789
:100F1000013D6DB2002D01DB0024D0E702B070BDB1
:100F2000E8000020F0B583B0132400273E4603E01C
:100F300001228AB9013C64B2002C2CDB0023092B6E
:100F4000F6DC04EB84025100164A0A44D256002A09
:100F5000EFD001335BB2F2E7013676B2A74200DA96
:100F6000274600250FE004EB84035A000D4B134481
:100F7000002159558DF8054002A800F8045DFFF7DF
:100F80008BFD01356DB2092DEDDD2046FFF790FF99
:100F9000013464B2CEE716B9304603B0F0BD01F0BB
:100FA00017FDF9E7E80000200023092B06DC054ABD
:100FB0001A4492F90A201AB90133F6E70020704763
:100FC00001207047E800002010B582B0394B1B8823
:100FD000ADF80430FFF7E8FF002843D1364B1B681B
:100FE000002B64D0344B00221A60344B1B78002B4A
:100FF0003FD002F0F7FA324C84FB00321318C217CC
:10100000C2EBA302C2EBC202821A2E4BD2B2002163
:101010000198FFF7A1FD02F0E5FA84FB00340444D7
:10102000C217C2EBA402C2EBC202821A264BD2B292
:1010300000210198FFF790FD4FF6FF70FFF740FD8C
:101040001E4B00221A704FF6FF711E48FFF75EFD1F
:10105000FFF768FF1D4A13681844106001F0E8F8B4
:1010600002B010BD4FF0FF3001F0E2F801F0CCFC0F
:10107000F6E7154C2268134B1A600020FFF720FD9D
:1010800002F0B0FA0E4A82FB00321318C217C2EB0C
:10109000A302C2EBC202821A2346D2B200210198F7
:1010A000FFF75AFD4FF6FF70FFF70AFDCBE7FFF79A
:1010B000B1FDD5E7DC4000080400002070050020E9
:1010C000932449927805002074050020B001002087
:1010D00008B5064B1A780721054800F09BFFC82287
:1010E0000021044801F00EFF08BD00BFB40100203C
:1010F00008000020D11000080238012800D97047EC
:1011000008B502F0F5F808BD08B501F06FFC054B15
:101110001B781BB9034B06221A7008BD013B014A1C
:101120001370FAE7B401002008B501F05FFC064B2C
:101130001B78052B03D9044B00221A7008BD01331C
:10114000014A1370FAE700BFB401002008B501F0AE
:101150004DFC08BD08B501F049FC084B1A78084B56
:1011600053F8223043B1074801F010FF034B1A78BF
:10117000034B53F82230984708BD00BFB40100204C
:1011800004420008D110000810B50024094B1C705F
:1011900007E0094B53F82410204602F0B5F901345A
:1011A000E4B2102CF5D964220021044801F0AAFE13
:1011B00010BD00BFB4010020C0410008D1100008DC
:1011C00008B500F02BFEC8220021024801F09AFE6B
:1011D00008BD00BFC111000808B501F007FC08BD3B
:1011E00008B501F003FC01F087FA034801F0CEFED8
:1011F000FFF7CAFF08BD00BFC111000808B501F024
:10120000F5FB052001F04AFA08BD08B501F0EEFB38
:10121000052001F053FA08BD10B5002407E0094B82
:1012200053F82410204602F06FF90134E4B2102C78
:10123000F5D901F051FAC8220021034801F062FEFD
:1012400010BD00BF78420008C111000810B5144B52
:101250001B789BB9134C207801F0ACFB01F0B2FB7A
:10126000C0B200F06DFD01F0C1FB23780133DBB2A9
:101270002370072B0DD9012222700AE0094B0122AD
:101280001A7001F09FFBC0B200F05AFD044B00221F
:101290001A704FF47A720021034801F033FE10BD3A
:1012A000B6010020B50100204D12000808B501F07C
:1012B0009DFB08BD08B501F099FB032001F07AFB06
:1012C000024801F063FEFFF75FFF08BD4D12000802
:1012D00010B5002407E0094B53F82410204602F013
:1012E00013F90134E4B2102CF5D9054B01221A7020
:1012F000C8220021034801F005FE10BDBC420008D1
:10130000B60100204D1200087047000008B5FFF735
:101310005BFE4FF4C8720021014801F0F3FD08BDE7
:101320000D13000808B501F07DFBFFF785FB08BD34
:1013300008B501F077FB034801F028FEFFF724FF12
:1013400008BD00BF0D13000808B5FFF74BFD08BD31
:1013500008B5FFF7A5FD08BD08B5FFF7F1FC08BD0E
:1013600008B5FFF74FFC08BD10B5002407E0094B96
:1013700053F82410204602F0C7F80134E4B2102CD0
:10138000F5D9FFF759FBC8220021034801F0BAFD47
:1013900010BD00BF004300080D130008FEE7000069
:1013A00008B503460C4A12685AB10B4A1068033359
:1013B00023F003030344094A934206D8064A136004
:1013C00008BD054A06491160EFE702F0BFF80C239B
:1013D00003604FF0FF30F3E7B801002000FC00206D
:1013E0008405002001230360014B0B60704700BFA0
:1013F000240000200FB400B583B004AB53F8042BD5
:1014000001938021064802F08BF9002803DD014694
:10141000034800F007F803B05DF804EB04B0704730
:10142000C00100204FF0FF307047000008B500F009
:1014300087F8024A024B9A6008BD00BF000000080E
:1014400000ED00E008B500F099F808BDF8B50446D5
:101450000D4617461E462748FFF7CCFF2168264851
:10146000FFF7C8FF61682548FFF7C4FFA16824485B
:10147000FFF7C0FFE1682348FFF7BCFF216922485E
:10148000FFF7B8FF61692148FFF7B4FFA169204861
:10149000FFF7B0FFE1691F48FFF7ACFF1E48FFF7F9
:1014A000A9FF29461D48FFF7A5FF1D4CE16A1D480D
:1014B000FFF7A0FF216B1C48FFF79CFFE16B1B4867
:1014C000FFF798FF15F0800F0AD115F4004F0CD1EB
:1014D0001748FFF78FFF06991648FFF78BFFF8BDF7
:1014E00039461548FFF786FFEFE731461348FFF707
:1014F00081FFEDE7444300085443000864430008BB
:10150000744300088443000894430008A44300087F
:10151000B4430008C4430008D4430008E043000873
:1015200000ED00E0F043000800440008104400080B
:1015300040440008484400082044000830440008A3
:101540000C4B1A6842F001021A60002199601A6877
:1015500022F0A85222F410221A604FF48052DA606E
:101560001A6822F480221A609961034B4FF00062DE
:101570009A6070470010024000ED00E02F4B1B689E
:1015800013F0080F16D12D4BD3F89430C3F3032377
:101590002B4A52F82310294A936803F00C030C2BB2
:1015A00048D8DFE803F00C474747194747471D472E
:1015B00047472100214B1B68C3F30313E8E7214B86
:1015C00019601E4B9B68C3F303131F4AD15C1D4A6D
:1015D0001368CB40136070471A4B1C4A1A60F0E73F
:1015E000184B1B4A1A60ECE7144BDA6802F003024E
:1015F000DB68C3F302130133022A04D0032A15D097
:10160000B1FBF3F302E0114AB2FBF3F30B49CA68F2
:10161000C2F3062203FB02F3CA68C2F3416201323D
:101620005200B3FBF2F3074A1360CAE7084AB2FB61
:10163000F3F3EBE7034B1960C3E700BF0010024070
:101640009C4400082C0000208C4400080024F40076
:1016500000127A0008B5074B1B6913F0010F00D187
:1016600008BD044A136923F00103136101F03EFB36
:10167000F6E700BF0010004008B5074B1B6913F0E8
:10168000010F00D108BD044A136923F0010313615F
:1016900001F052FBF6E700BF000400404FF090431A
:1016A0005A6922F480725A615A6922F480625A613E
:1016B000034A50615A6942F480725A61704700BF10
:1016C000000C00484FF090435A6922F480725A612E
:1016D0005A6942F480625A61034A50615A6942F47D
:1016E00080725A61704700BF000C0048014B18809F
:1016F000704700BF46020020014B1880704700BFB2
:101700004002002038B505460C462A20FFF7C6FFE8
:101710000020FFF7D7FF00F071FE83B26842C01AC5
:1017200080B2F03080B2FFF7CDFF0020FFF7CAFF94
:10173000F020FFF7C7FF2B20FFF7B0FF200AFFF7CD
:10174000C1FFE0B2FFF7BEFF0120FFF7BBFF3F2064
:10175000FFF7B8FF024B1D80024B1C8038BD00BF55
:10176000440200204202002070B50646B0F5A07F7A
:1017700001D94FF4A076114C2188114B1888FFF73E
:10178000C1FF258811E00F4B1888FFF79BFF01343C
:1017900000F034FEA042F6DC084B1988013189B212
:1017A000074B1888FFF7AEFF0135AE4204DD2C2051
:1017B000FFF774FF0024EBE770BD00BF420200207A
:1017C000440200204002002008B54FF4A070FFF74B
:1017D000CBFF054B00221A8000F010FE034A13884D
:1017E00013FA80F0108008BD42020020440200205D
:1017F00008B50023064A1380064A1380064A40F2C1
:10180000FF711180054A1380082000F0CDFD08BD4E
:101810004402002042020020460200204002002034
:1018200008B54FF09042536943F48053536100234D
:1018300000E00133B3F57A7FFBDB4FF090435A6948
:1018400042F400725A615A6922F400625A6100231C
:1018500014E04FF09042516921F480715161516957
:1018600021F480615161164901EB43014878154923
:101870004861516941F48071516101334D2B1BD88E
:101880000F4A12F81320002AE3D0012AF5D14FF0B5
:101890009042516921F480715161516941F4806134
:1018A0005161074901EB4301487806494861516994
:1018B00041F480715161E0E7FFF79AFF08BD00BF76
:1018C000CC440008000C00482DE9F04F83B00446DA
:1018D00000F09AFD8146A4F1200300EB8303D3F8C6
:1018E00004B09BF80020037803FB02F3427893FBDB
:1018F000F2F3009300F0AAFD05463A4B19883A4BE3
:101900001888FFF7FFFE2C20FFF7C8FE01954FF067
:10191000000AD046564639E0DBF8043013F80A6076
:101920004FF080083DE0DBF8043033F81A604FF4E4
:10193000004836E0DBF8043053F82A604FF00048E6
:101940002FE02A4B1888FFF7BDFE0134AC42F8D3D4
:101950007600013799F80130BB420CDD16EA080425
:1019600006D00024F2E7224B1888FFF7ABFE0134C3
:10197000AC42F8D3ECE70AF1010A99F80020B2FB77
:10198000F3F3BAFBF3F203FB12A363B1009B9A4596
:1019900024D299F80130102BC5D0202BCAD0082BA7
:1019A000BAD00027D6E70F4B1988013189B20E4B08
:1019B0001888FFF7A7FE2C20FFF770FE019B012B74
:1019C0000AD9013B019399F8003099F80120B3FB43
:1019D000F2F3AAEB030AD9E70195D7E703B0BDE814
:1019E000F08F00BF42020020440200204602002087
:1019F000400200202DE9F04100F02EFD0646D0F80F
:101A000004805B4B19885B4B1888FFF77BFE2C200A
:101A1000FFF744FE002718E03088FFF753FE64000C
:101A2000E4B20135072D07DC14F0800FF4D1524BDE
:101A30001888FFF747FEF2E70137504BA3FB072357
:101A40005B0803EB43039F420AD098F8003003EB96
:101A50004303BB4210D9D8F80430DC5D0025E1E730
:101A6000434B1988013189B2424B1888FFF74AFE6F
:101A70002C20FFF713FEE8E7D6F808803C4B1988C6
:101A80003C4B1888FFF73EFE2C20FFF707FE00278F
:101A900017E07088FFF716FE6400E4B20135072DE9
:101AA00006DC14F0800FF4D13088FFF70BFEF3E76B
:101AB0000137324BA3FB07235B0803EB43039F4231
:101AC0000AD098F8003003EB4303BB4210D9D8F892
:101AD0000430DC5D0025E2E7254B1988013189B22D
:101AE000244B1888FFF70EFE2C20FFF7D7FDE8E700
:101AF000D6F80C801E4B19881E4B1888FFF702FE83
:101B00002C20FFF7CBFD002718E03088FFF7DAFD27
:101B10006400E4B20135072D07DC14F0800FF4D126
:101B2000154B1888FFF7CEFDF2E70137134BA3FBE7
:101B300007235B0803EB43039F420AD098F8003069
:101B400003EB4303BB4210D9D8F80430DC5D002519
:101B5000E1E7074B1988013189B2064B1888FFF776
:101B6000D1FD2C20FFF79AFDE8E7BDE8F08100BF2A
:101B7000420200204402002040020020ABAAAAAA90
:101B800010B5044602E00134FFF79EFE94F9000010
:101B90000028F8D110BD000008B5082000F004FCB2
:101BA00001E0FFF711FE024B1B88EF2BF9D908BDAE
:101BB0004402002008B5FFF707FE082000F0F4FB00
:101BC000FFF702FE08BD08B5FFF712FEFFF7E4FFBE
:101BD00008BD000008B5FFF70BFE082000F0E4FB8D
:101BE0004FF6FF70FFF782FDFFF7EEFD202000F0BB
:101BF000DBFB1020FFF7B8FD4548FFF7C1FF2020B1
:101C0000FFF762FE4348FFF7BBFF082000F0CCFB64
:101C10004148FFF7B5FF202000F0C6FBFFF7D4FDD9
:101C2000082000F0C1FBFFF7CFFD202000F0BCFB37
:101C30003A48FFF7A5FFFFF7C7FDFFF7C5FD1020E6
:101C400000F0B2FB1020FFF78FFD3548FFF798FF3B
:101C5000FFF7BAFD0C2000F0A7FBFFF7B5FD102041
:101C600000F0A2FB1020FFF77FFD4FF28340FFF74B
:101C70003DFD2C48FFF784FFFFF7A6FD0C2000F088
:101C800093FBFFF7A1FD102000F08EFB1020FFF763
:101C90006BFD4FF6FF70FFF729FD2348FFF770FF3C
:101CA0009620FFF761FD2148FFF76AFFFFF78CFDE3
:101CB0000C2000F079FBFFF787FD102000F074FB8B
:101CC0001020FFF751FD1A48FFF75AFF9620FFF743
:101CD0004BFD1848FFF754FFFFF776FD0C2000F08E
:101CE00063FBFFF771FD102000F05EFB1020FFF793
:101CF0003BFD1148FFF744FF9620FFF735FD0F48E5
:101D0000FFF73EFFFFF760FDFFF75EFD08BD00BF78
:101D100068450008784500087C45000880450008B3
:101D200098450008AC450008C4450008CC450008AB
:101D3000D8450008E8450008F445000808460008B2
:101D400010B588B00446FFF753FD202000F02CFBAF
:101D50000D48FFF715FFFFF737FD182000F024FBB3
:101D6000FFF732FD0948FFF70BFF0A2269462046BC
:101D700001F00AFC6846FFF703FFFFF725FDFFF7B8
:101D80000BFF08B010BD00BF7C460008904600085D
:101D900008B5FFF72DFD202000F006FB1948FFF7DE
:101DA000EFFEFFF711FDFFF70FFD482000F0FCFAF2
:101DB0004FF6E070FFF79AFC134B1B6913F0010F0D
:101DC0001BD11248FFF7DCFEFFF7FEFC182000F0E5
:101DD000EBFAFFF7F9FCFFF7F7FCFFF7F5FC0C480F
:101DE000FFF7CEFE0E20FFF705FE0A48FFF7C8FEFC
:101DF000FFF7EAFCFFF7D0FE08BD0748FFF7C0FE7B
:101E0000E2E700BFA846000800080048C4460008F2
:101E1000CC460008D4460008BC46000810B5FFF7C1
:101E2000E7FC202000F0C0FA1B48FFF7A9FEFFF7EF
:101E3000CBFC182000F0B8FAFFF7C6FCFFF7C4FC93
:101E40001648FFF79DFEFFF7BFFC154C2046FFF735
:101E500097FE0C20FFF7CEFD1248FFF791FE0420FD
:101E6000FFF7C8FDFFF7B0FC0F48FFF789FEFFF74B
:101E7000ABFCFFF7A9FCFFF7A7FC2046FFF780FEAD
:101E80000F20FFF7B7FD0948FFF77AFEFFF79CFC2C
:101E9000FFF782FE10BD00BFE8460008FC460008C0
:101EA000CC460008184700082C470008484700089F
:101EB00010B50446FFF79CFC202000F075FA50484E
:101EC000FFF75EFEFFF776FE182000F06DFA102097
:101ED000FFF790FDFA20FFF747FC0F20FFF78AFD80
:101EE000FFF768FE182000F05FFA0720FFF782FD79
:101EF000FA20FFF739FC0E20FFF77CFDFFF75AFEB2
:101F0000182000F051FA0520FFF774FDFA20FFF7C2
:101F10002BFC0620FFF76EFDFFF756FC102000F0AB
:101F200043FAFFF751FC182000F03EFA0820FFF7B3
:101F300061FD3220FFF718FC0920FFF75BFD6420EC
:101F4000FFF712FC0A20FFF755FD9620FFF70CFC67
:101F50000B20FFF74FFDC820FFF706FC0C20FFF712
:101F600049FDFA20FFF700FC0D20FFF743FDFFF7C6
:101F700021FE182000F018FA0020FFF73BFD322068
:101F8000FFF7F2FB0120FFF735FD6420FFF7ECFBC4
:101F90000220FFF72FFD9620FFF7E6FB0320FFF757
:101FA00029FDC820FFF7E0FB0420FFF723FDFFF722
:101FB0000BFC102000F0F8F9FFF706FC182000F0E9
:101FC000F3F94FF6FF70FFF791FB112C0DD00D4880
:101FD000FFF7D6FD2046FFF70DFD0B48FFF7D0FDBC
:101FE000FFF7F2FBFFF7D8FD10BD0848FFF7C8FD6B
:101FF0000E20FFF7FFFC0648FFF7C2FDF0E700BF29
:1020000044460008CC460008544600085C460008D8
:102010006C4600082DE9F04180460D461646FFF754
:10202000E7FB202000F0C0F93A48FFF7A9FDFFF7D1
:10203000C1FD032E05DC072D0DDD072500273C46DD
:1020400022E02B1FB34203DA062D06DDEF1FF6E771
:10205000F71E351DF3E70027F1E70027EFE74FF6FE
:10206000FF70FFF743FB4FF48060FFF745FB202034
:1020700000F09AF958F82400FFF782FD0020FFF7DE
:102080003BFBFFF7A1FB0134A54216DDB442E6D0CD
:1020900047F6EF30FFF72AFB0020FFF72DFB182053
:1020A00000F082F958F82400FFF76AFD4FF6FF7040
:1020B000FFF71CFBFFF788FBE5E7182000F074F939
:1020C000002402E0FFF780FB0134EB1BC3F10703A0
:1020D000A342F7DC4FF6FF70FFF708FB182000F073
:1020E00063F90D48FFF74CFD0C20FFF783FC0B480C
:1020F000FFF746FD0420FFF77DFC0948FFF740FD90
:102100000E20FFF777FCFFF75FFBFFF745FDBDE80B
:10211000F08100BF144600082C4600083446000831
:102120003846000870B50546FFF762FB082000F04E
:102130003BF90021E820FFF7E5FA2C20FFF7AEFA83
:10214000002606E02846FFF7BDFA0134EF2CF9DD42
:102150000136B6F5A07F01DA0024F7E770BD70B54F
:1021600006460D461446002000F01EF9B1B2A8B292
:10217000FFF7C8FA2C20FFF791FA2046FFF7A2FAE2
:1021800070BD2DE9F84380460D46164692B9471CAE
:102190000AE0324621463846FFF7E1FF013405F1F7
:1021A0000903A342F5DC013708F10903BB423DDD19
:1021B0006C1CF4E7871C0AE0324621463846FFF7DC
:1021C000CEFF013405F10803A342F5DC013708F125
:1021D0000809B94501DDAC1CF4E708F101063446F5
:1021E0000DE04FF6FF72691C2046FFF7B8FF48F27A
:1021F000104205F108012046FFF7B1FF013408F154
:102200000903A342EDDC6C1C0CE04FF6FF72214683
:102210003046FFF7A4FF48F2104221464846FFF738
:102220009EFF013405F10903A342EEDCBDE8F8830B
:1022300010B582B00446FFF7DBFA182000F0B4F8BE
:10224000EB210020FFF75EFAFFF7BEFAEB211A4BF5
:102250001888FFF757FA002C1FDB0A226946204630
:1022600001F092F91548FFF78BFCFFF7ADFAEB216F
:10227000114B1888FFF746FA6846FFF781FC00F01B
:10228000BDF8800080B2EB21FFF73CFA0C48FFF765
:1022900077FCFFF799FA02B010BD0A48FFF770FC0F
:1022A000FFF792FAEB21044B1888FFF72BFA064848
:1022B000FFF766FCE3E700BF4402002098470008F0
:1022C000B0470008A0470008A847000808B500204C
:1022D000FFF728FFFFF78CFA182000F065F8FFF7EA
:1022E00073FA0B20FFF786FB2248FFF749FCFFF744
:1022F0006BFA082000F058F8FFF766FA182000F093
:1023000053F80D20FFF776FB1B48FFF739FCFFF76A
:102310005BFA082000F048F8FFF756FA182000F0A2
:1023200043F80C20FFF766FB1448FFF729FCFFF782
:102330004BFA082000F038F8FFF746FA182000F0B2
:1023400033F80620FFF756FB0D48FFF719FCFFF79F
:102350003BFA082000F028F8FFF736FA182000F0C2
:1023600023F80E20FFF746FB0648FFF709FCFFF7AE
:102370002BFA08BD68470008704700087C47000832
:10238000884700089047000808B5FFF731FA202079
:1023900000F00AF80348FFF7F3FBFFF715FAFFF721
:1023A000FBFB08BD54470008124B1870202811D0C1
:1023B0000AD9402814D011D9482817D0602814D140
:1023C0000D4B04221A607047102803D0182801D042
:1023D0000828F8D1084B01221A607047302803D131
:1023E000054B02221A60704770477047024B032268
:1023F0001A607047480200204C020020014B1878F8
:10240000704700BF480200200B4B1B78202B10D0D8
:1024100007D8102B01D109487047182B07D108485D
:102420007047482BFBD0602BF9D0302BF7D00548F4
:1024300070470548704700BF48020020A04D0008C3
:10244000245100082C580008A8540008014B1868B3
:10245000704700BF4C020020014B53F8200070472A
:102460003000002010B1012806D07047054A53699A
:1024700023F4007353617047024A536923F4807355
:10248000536170470004004808B50020FFF7EAFFD9
:102490000120FFF7E7FF08BD08B5064A536983F03E
:1024A000080353614FF4FA720021034800F02AFD3B
:1024B00008BD00BF000800489924000808B50E4B6D
:1024C0001B6843B1042B0ED9FEF75EFE0A4A13685F
:1024D0000133136008BDFFF776FB32220021074865
:1024E00000F010FDF2E7FFF775FB4FF47A72002160
:1024F000024800F007FDE9E750020020BD24000873
:102500001F4AD36C43F01F03D3644FF0904213680B
:1025100023F07F7323F440331360136843F0AA73EE
:1025200043F480331360174B174A1A601A6822F479
:1025300040621A600121D96003F54063134A1A60B2
:1025400045F25552DA6010225A62A3F500631A6808
:1025500022F4402222F0F3021A601A6842F40022A8
:1025600042F050021A6020225A625A6942F0040274
:102570005A61D96003F580634FF055321A60704795
:102580000010024000040048400105110000FBFF5C
:1025900008B5114A136843F4803313600E4B1B686F
:1025A00013F4003FFAD00C4B0C4ADA601A6842F080
:1025B00080721A60084B1B6813F0007FFAD0064B3C
:1025C00003229A60044B9B6803F00C030C2BF9D197
:1025D000FEF7D4FF08BD00BF00100240030F000348
:1025E00008B5FFF7D5FF144A14494FF47A7000F08C
:1025F00051FCFFF785FF00F0CBF900F04BF8FFF737
:1026000043FFFFF70DF94FF4FA7200210C4800F078
:1026100079FC00F0DBFD112100F036FF05220021DE
:10262000084800F06FFC64220021074800F06AFCB3
:1026300000F048FC08BD00BFCD2D0008852D000826
:10264000992400085D320008BD2400080D4A136E6D
:1026500043F4006313660C4B60229A6101221A62F4
:1026600000229A62094A12680949A1FB0212D20BA0
:10267000013ADA620A225A635A6C42F400425A64FE
:10268000704700BF00100240002C01402C000020C9
:102690006BCA5F6B08B5FFF7D9FF08BD064B5B6BD4
:1026A0009BB2C3F16402904204DC03449BB2024A31
:1026B000536370476423FAE7002C0140054B5B6BC2
:1026C0009BB2834204D31B1A9BB2024A53637047E6
:1026D0000023FAE7002C0140054A536943F4805374
:1026E0005361044A136843F001031360704700BF4D
:1026F00000040048002C0140054A136823F0010340
:102700001360044A536923F480535361704700BF38
:10271000002C014000040048124A936D43F012035C
:102720009365114B4FF4C042DA6120221A600022F7
:102730001A614FF4805119629A62DA625A6C42F45B
:1027400000425A64094B1B68094AA2FB03239B09F8
:10275000084AD362084B4FF000521A604FF48002CF
:102760005A60704700100240000400402C00002016
:10277000D34D62100010004000E100E0014BD86230
:10278000704700BF00040040014B1864704700BF51
:1027900000040040064B1B68064AA2FB03239B0C67
:1027A00000FB03F0044BA3FB00300009704700BF9F
:1027B0002C00002083DE1B43CDCCCCCC064B00226A
:1027C0001A80064B1A6842F001021A60DA6842F079
:1027D0000102DA60704700BF68020020001000406C
:1027E0000B4B1A6822F001021A60DA6822F001022B
:1027F000DA6003F540631A6822F001021A60DA68B1
:1028000022F00102DA60034B00221A70704700BF09
:10281000000400406602002038B504460D46FFF76C
:10282000B9FFFFF7ABFF072D12D8104B585D640AB4
:10283000053404FB00F0FFF7ADFF0D4B1860C20834
:102840000C4B1A6082090C4B1A60400A0B4B186043
:102850000B4B0C221A700B4B1A6842F001021A60E3
:10286000DA6842F00102DA6038BD00BFACA20008AD
:1028700054020020580200205C0200206002002068
:102880006502002000040040044B1A6822F0010297
:102890001A60DA6822F00102DA6070470004004032
:1028A00008B5394B1B8840F29112934250D0B3F5D2
:1028B000C97F15D21F2B3BD00BD8012B30D0102B4A
:1028C00035D1324B1978033940F6B510FFF7A4FF24
:1028D0002DE0E72B34D0F62B29D1FFF7D5FF26E0EA
:1028E00040F27722934243D0B3F51E7F0ED2B3F568
:1028F000D07F35D040F2AF12934218D1234B1978D4
:10290000013940F63B40FFF787FF10E040F2862296
:10291000934235D0B3F5487F09D1FFF761FF06E058
:102920001A4B1978043940F6B510FFF775FF08BD4A
:10293000164B1978013940F6B510FFF76DFFF6E731
:10294000124B1978033940F6B510FFF765FFEEE733
:102950000E4B1978043940F63B40FFF75DFFE6E780
:102960000A4B1978033940F63B40FFF755FFDEE785
:10297000064B1978033940F63B40FFF74DFFD6E789
:10298000FFF782FFD3E700BF680200206402002047
:1029900008B50023044A1380044A03211170044A35
:1029A0001370FFF7B9FE08BD680200206402002022
:1029B00066020020072801D8014B1870704700BF3D
:1029C00064020020014B1878704700BF64020020A9
:1029D00008B5054B1B7803B108BD034B01221A70E3
:1029E000FFF7ECFEF8E700BF6602002008B5054BD4
:1029F0001B7803B108BD034B02221A70FFF7DEFEFD
:102A0000F8E700BF6602002008B5054B1B78042BD1
:102A100004D0034B04221A70FFF7D0FE08BD00BF9C
:102A20006602002008B5044B1B78033B012B00D93C
:102A300008BDFFF7D5FEFBE76602002008B5154B81
:102A40001B88832B1BD00BD8012B10D00B2B15D13F
:102A5000114B1978013940F6B510FFF7DDFE0DE096
:102A60008D2B14D0A12B09D1FFF7BAFE06E00A4B3B
:102A70001978033940F6B510FFF7CEFE08BD064BB6
:102A80001978033940F6B510FFF7C6FEF6E7FFF7F1
:102A9000FBFEF3E7680200206402002008B5914BBA
:102AA0001B88B3F5FA6F02D3A3F5FA639BB240F229
:102AB0000922934200F0D78043D8FB2B00F0AB8073
:102AC00019D940F2AF12934200F0B580B3F5D87F28
:102AD00027D340F2F512934200F0B58040F2FF1286
:102AE000934200F0B88040F2B912934240F08280E5
:102AF000FFF7CAFE7EE0142B7DD00BD8012B72D0DD
:102B00000A2B77D1784B1978033940F21E60FFF712
:102B100083FE6FE0B52B76D0BF2B6BD1FFF7B4FEF1
:102B200068E040F2051293427DD040F20F129342CA
:102B300060D16D4B1978013940F6E620FFF76CFE45
:102B400058E040F29D42934200F0AD801BD940F224
:102B5000EC42934200F0B28035D940F29752934252
:102B600000F0B48040F2A152934200F0B78040F2EE
:102B7000F64293423ED15C4B1978013940F6E6208B
:102B8000FFF74AFE36E040F2E93293427BD00AD8A2
:102B900040F2A92293426ED040F2B322934229D14F
:102BA000FFF772FE26E040F2F332934273D040F218
:102BB000FD3293421ED14C4B1978013940F21E6010
:102BC000FFF72AFE16E040F2A742934273D040F28C
:102BD000E24293420ED1444B1978043940F6E62084
:102BE000FFF71AFE06E0404B1978043940F21E60E8
:102BF000FFF712FE08BD3C4B1978013940F21E6008
:102C0000FFF70AFEF6E7384B1978033940F21E60E9
:102C1000FFF702FEEEE7344B1978043940F6E62060
:102C2000FFF7FAFDE6E7304B1978033940F6E62066
:102C3000FFF7F2FDDEE72C4B1978033940F6E6206A
:102C4000FFF7EAFDD6E7284B1978043940F6A600CD
:102C5000FFF7E2FDCEE7244B1978033940F6A600D2
:102C6000FFF7DAFDC6E7204B1978013940F6A600D8
:102C7000FFF7D2FDBEE71C4B1978033940F6A600DA
:102C8000FFF7CAFDB6E7184B1978043940F21E6009
:102C9000FFF7C2FDAEE7144B1978033940F21E600E
:102CA000FFF7BAFDA6E7104B1978033940F21E6012
:102CB000FFF7B2FD9EE7FFF7E7FD9BE70A4B1978A8
:102CC000033940F6E620FFF7A7FD93E7064B197896
:102CD000033940F6E620FFF79FFD8BE7FFF7D4FDB1
:102CE00088E700BF680200206402002008B5104B8E
:102CF0001B78022B15D0042B16D0012B02D0FFF726
:102D00006FFD01E0FFF7CCFD0A4A138801339BB247
:102D1000138042F21072934202D9064B00221A80AD
:102D200008BDFFF78BFEEFE7FFF7B8FEECE700BF4B
:102D3000660200206802002008B5104B1B782BB1FA
:102D4000013B0E4A13700023184604E00B4B0C2283
:102D50001A70F8E70133052B0CDC094A12F833101E
:102D6000064A12789142F5D1054A02EBC302526835
:102D70001068EFE7FFF708FD08BD00BF65020020FF
:102D8000B4A200080D4B00229A601A605A6001221A
:102D90001A7319610A4B1B68B3FBF0F00138B0F1EC
:102DA000807F09D2074B5860074AF02182F8231030
:102DB00000229A6007221A60704700BF6C02002050
:102DC0002C00002010E000E000ED00E0024B1A684B
:102DD00058685A60101A70476C02002008B5034BFF
:102DE0001A6801321A601B69984708BD6C020020FE
:102DF0007047000072B600234FF0FF3005E01A0163
:102E000009498A5882420DD30133132B08D8064A48
:102E100002EB0312127B022AF1D0012AF4D1002026
:102E200062B670471046EFE78002002010B572B618
:102E3000164B1B68984738B30446002310E01A016C
:102E40001349002088501A0111498A583AB901EBF8
:102E5000031252681AB101EB0312012111730133FD
:102E6000132B11D80A4A02EB0312127B022AF6D165
:102E70001A0107498A58002AE5D0A242DFD9190170
:102E8000121B03484250DEE762B610BDC0030020AB
:102E90008002002038B50D461446002305E0064A9E
:102EA00002EB0312002111730133132BF7D90349ED
:102EB000A847034B1C6038BD80020020F12D00089C
:102EC000C003002010B516E062B60134132C10D8F0
:102ED00072B60B4B03EB04131B7B012BF4D1084B95
:102EE00003EB04135A6898680021197362B690477F
:102EF000EBE7FFF77FFFFFF799FF0024E6E700BF4E
:102F000080020020F8B572B60024132C06D8104BAE
:102F100003EB04131B7B0BB10134F6E7132C02D92E
:102F200062B62046F8BD17460D460646FFF77EFFFF
:102F3000074A2301D1184E608D60D7502FB102226D
:102F4000034B03EB04131A73EAE70122F8E700BF0F
:102F50008002002072B6132813D80B4B03EB00132A
:102F60005B688B4201D000200CE0074900010B1880
:102F700000220A505A601A734DF61D629A600120B1
:102F800000E0002062B670478002002070B472B684
:102F900000231E4600E00133132B17DC0D4A02EB21
:102FA0000312127B002AF6D00A4A02EB031252687F
:102FB0008242F0D1074D1C012A1900211173516082
:102FC000295140F6E15191600136E4E762B630469E
:102FD00070BC704780020020704770477047704790
:102FE0007047704770477047704770477047704729
:102FF00070477047704770477047000008B5024837
:10300000FFF7C4FF08BD00BFFD2F000808B5024848
:10301000FFF7BCFF08BD00BF0D30000808B502482F
:10302000FFF7B4FF08BD00BF1D30000808B5024817
:10303000FFF7ACFF08BD00BF2D30000808B50248FF
:10304000FFF7A4FF08BD00BF3D30000808B50248E7
:10305000FFF79CFF08BD00BF4D30000808B50248CF
:10306000FFF794FF08BD00BF5D30000808B50248B7
:10307000FFF78CFF08BD00BF6D30000808B502489F
:10308000FFF784FF08BD00BF7D30000808B5024887
:10309000FFF77CFF08BD00BF8D30000808B502486F
:1030A000FFF774FF08BD00BF9D30000808B5024857
:1030B000FFF76CFF08BD00BFAD30000808B502483F
:1030C000FFF764FF08BD00BFBD30000808B5024827
:1030D000FFF75CFF08BD00BFCD30000808B502480F
:1030E000FFF754FF08BD00BFDD30000808B50248F7
:1030F000FFF74CFF08BD00BFED30000808B50248DF
:10310000FFF744FF08BD00BFFD30000810B50446BE
:1031100000F060F80123A340184214BF01200020F2
:1031200010BD08B51020FFF7F1FF08BD08B50F204E
:10313000FFF7ECFF08BD08B50E20FFF7E7FF08BD5D
:1031400008B50D20FFF7E2FF08BD08B50C20FFF71A
:10315000DDFF08BD08B50B20FFF7D8FF08BD08B597
:103160000A20FFF7D3FF08BD08B50920FFF7CEFFFF
:1031700008BD08B50820FFF7C9FF08BD08B507203E
:10318000FFF7C4FF08BD08B50620FFF7BFFF08BD65
:1031900008B50520FFF7BAFF08BD08B50420FFF702
:1031A000B5FF08BD08B50320FFF7B0FF08BD08B59F
:1031B0000220FFF7ABFF08BD08B50120FFF7A6FF0F
:1031C00008BD08B50020FFF7A1FF08BD0048704703
:1031D000E4A20008014B1868704700BFC803002034
:1031E00082B0034B1B69DBB20193019802B07047B8
:1031F00000100048044B1B6913F0200F01D101207F
:1032000070470020704700BF0004004810B101283B
:1032100004D07047034B044A9A617047014B034A3C
:103220009A61704700040048080010001000080070
:1032300038B5094B1D6845401860002401E0013491
:10324000E4B2102C07D80123A3402B42F7D020462C
:1032500000F068F9F3E738BDC803002010B5214B32
:103260001B78012B13D013B1022B21D010BD0024E9
:103270001D4B1C602046FFF7C9FF1A4A1378013323
:103280001370052221461948FFF73CFEEEE7FFF7D1
:10329000A7FF154B18600120FFF7B8FF114A1378FC
:1032A00001331370052200211048FFF72BFEDDE7E4
:1032B000FFF796FF0C4C236843EA00202060FFF7DD
:1032C00099FF236843EA00402060C043C0F3100028
:1032D000FFF7AEFF0021034B197005220348FFF7EB
:1032E00011FEC3E7C4030020CC0300205D320008B8
:1032F000024A536923F004035361704700080048F1
:1033000038B5044643000344DA001B4D15442B69CD
:1033100098476B78022B10D004EB4403DA00164B6D
:1033200013445B7883420CD004EB4404E200124B5C
:1033300013440022DA70012038BD00222A7168701F
:10334000EAE711460C4A0A44D3780133D370117965
:1033500001311171DBB2042B0CD9074B620010193B
:10336000C1005D180020E8706D785D540B440222A6
:103370005A70E1E70220DFE7D0030020F8B5C4B2BD
:1033800004EB4403DA00174B13449B78012B02D063
:10339000022B12D0F8BD134E65002A19D300334416
:1033A00002229A7040F24C4221460F48FFF7AAFDD4
:1033B0002C44E3001E447061ECE70A4F66003319A9
:1033C000DD003D440323AB7040F24C4221460648E9
:1033D000FFF798FD68610022A978A868FFF792FDC1
:1033E000D8E700BFD00300207D33000870B5044645
:1033F000C0B2FFF785FF022823D008BBE4B21F4EFE
:1034000063002344DD007319DB6801209847735D76
:10341000012B1CD004EB4403DA00184B13449B78B7
:103420002BBB164E65002A19D3003344002299782D
:103430009868FFF767FD2C44E3001E440023B37037
:1034400070BD0522E1B20E48FFF75CFDF8E7324699
:1034500029463144012088702A44127902EB820205
:10346000C2F5C87221460748FFF74CFDE8E7034B59
:10347000134404495869FFF76DFDD2E7D0030020DB
:10348000ED3300087D3300082DE9F047804689467A
:103490004FF4CC7200211B4800F078F8002501E0C1
:1034A0000135EDB24D452AD2280108EB0002167B0A
:1034B00006EB4603D900134B0B449B68002BEFD15E
:1034C000DFF840A07700B919CB000AEB0304022112
:1034D0000AF8031061700023A370E37023719368EE
:1034E000A36058F80030E3605268226101209847D9
:1034F000236998473E44F3000AF80300D0E7BDE88B
:10350000F08700BFD003002041B110B400EB4000B1
:10351000C200034B1344996010BC7047704700BF52
:10352000D003002010B5044600EB4003DA00054B41
:103530001344DB6800209847002221460248FFF729
:10354000E1FC10BDD0030020ED330008014B1868EA
:10355000704700BF74000020931E222B10B50C464C
:1035600004D900230B701C46204610BD0A2A09D13D
:10357000002807DA2D230B7040420121214400F07E
:1035800065F8F1E70021F9E7FFF7E6BF02440346DB
:10359000934200D1704703F8011BF9E738B50D4B92
:1035A0001C68A36B05467BB9182000F0C7F80A4ACF
:1035B0000A4BA063C0E90023094B83600B2383817E
:1035C00001220023C0E90423A36B00221D615A617C
:1035D00038BD00BF740000200E33CDAB34126DE651
:1035E000ECDE050038B5134B1C68A36B7BB91820C3
:1035F00000F0A4F8104A114BA063C0E90023104B5F
:1036000083600B23838101220023C0E90423A16B83
:103610000C480A694B690C4C504304FB0300A2FBA5
:1036200004230344541C43F10005C1E9044525F07B
:10363000004038BD740000200E33CDAB34126DE66F
:10364000ECDE05002DF451582D7F954CF0B51D4B47
:103650008BB005460C466E4603F1200C186859687D
:10366000374603C7083363453E46F7D118681B79D0
:103670003B71931E222B38604FF0000304D9237056
:103680001C4620460BB0F0BD661EB5FBF2F00AAF3B
:1036900002FB10553D44591C15F8285C06F8015FE3
:1036A000054668B9605423442246191B101B814209
:1036B000E7DD1178187802F8010B03F80119F4E737
:1036C0000B46E2E7F4A3000830B5141E05469BB094
:1036D000184605DA8B232B604FF0FF301BB030BD4E
:1036E0004FF40273ADF80C3014BF04F1FF332346DE
:1036F000029305934FF6FF7300910491ADF80E30DD
:1037000002461E9B6946284600F022F9431CBCBFB6
:103710008B232B60002CE1D0009B00221A70DDE788
:1037200007B5009313460A46014603480068FFF7B1
:10373000CBFF03B05DF804FB74000020024B014690
:10374000186800F051B800BF7400002038B5054675
:10375000002945D051F8043C0C1F002BB8BFE418D9
:1037600000F0FAFB1F4A1368104633B96360146017
:103770002846BDE8384000F0F0BBA3420CD92168D0
:103780006218934204BF1A685B68636004BF5218F2
:1037900022600460ECE713465A680AB1A242FAD9E3
:1037A00019685818A0420BD1206801445818824269
:1037B0001960DDD1106852685A6001441960D7E77A
:1037C00002D90C232B60D3E7206821188A4204BF5A
:1037D00011685268626004BF091821605C60C7E725
:1037E00038BD00BF6805002070B5CD1C25F003056D
:1037F00008350C2D38BF0C25002D064601DBA942EB
:1038000003D90C233360002070BD00F0A5FB214AD2
:103810001468214691B9204C23681BB9304600F04A
:1038200015FB20602946304600F010FB431C24D1D4
:103830000C233360304600F090FBE4E70B685B1B21
:1038400018D40B2B0FD90B60CD50CC18304600F09C
:1038500084FB04F10B00231D20F00700C31AD3D012
:103860005A42E250D0E78C424B6816BF6360136047
:103870000C46EBE70C464968CCE7C41C24F0030473
:10388000A04205D0211A304600F0E0FA0130CFD036
:103890002560DBE7680500206C0500202DE9F04776
:1038A0008E689E4282460C469046994637D88A8951
:1038B00012F4906F31D0256809696F1A6569022387
:1038C00005EB450595FBF3F509F101033B449D42EA
:1038D00038BF1D46530530D52946FFF785FF0646FC
:1038E00050B90C23CAF80030A38943F04003A381E8
:1038F0004FF0FF30BDE8F0873A46216900F008FB41
:10390000A38923F4906343F08003A381266165615A
:103910003E44ED1B2660A5604E464E4500D94E46FE
:1039200032464146206800F0FEFAA3689B1BA36064
:1039300023681E4426600020DCE72A4600F00EFBC8
:1039400006460028E2D121695046FFF7FFFEC8E78E
:103950002DE9F04F9DB0804603938B891D060C46E0
:1039600016460FD50B696BB94021FFF73DFF20606C
:10397000206128B90C23C8F800304FF0FF30C7E0B1
:10398000402363610023099320238DF829303023DD
:103990008DF82A304FF0010B37463D4615F8013BB4
:1039A0000BB1252B3ED1B7EB060A0BD0534632465E
:1039B00021464046FFF772FF013000F0A480099BCA
:1039C000534409933B78002B00F09D8000234FF077
:1039D000FF32CDE90523049307938DF853301A93F2
:1039E0002F46052217F8011B4F4800F041FA049BAF
:1039F000D0B9D90644BF20228DF853201A0744BFFE
:103A00002B228DF853202A782A2A15D0079A2F4680
:103A100000200A25394611F8013B303B092B4DD9CE
:103A2000B8B10FE02F46B8E73F4A801A0BFA00F012
:103A3000184304903D46D3E7039A111D1268039181
:103A4000002A01DB079204E0524243F0020307928E
:103A500004933B782E2B0CD17B782A2B33D1039BFC
:103A60001A1D1B680392002BB8BF4FF0FF330237BB
:103A700005932E4D39780322284600F0F9F938B124
:103A80004023401B03FA00F0049B034301370493D7
:103A9000397827488DF8281006227E1C00F0E8F9B6
:103AA000002838D0234B13BB039B073323F00703B5
:103AB00008330393099B4B4409936DE705FB0232DE
:103AC00001200F46A6E700230137059319460A2572
:103AD000384610F8012B303A092A03D9002BC8D0F8
:103AE0000591C6E705FB012101230746F0E703AB7B
:103AF00000932246104B04A94046AFF30080B0F17A
:103B0000FF3F8146D6D1A3895B063FF536AF0998C2
:103B10001DB0BDE8F08F03AB00932246064B04A90D
:103B2000404600F081F8EAE719A400081FA4000845
:103B300023A40008000000009D3800082DE9F0478C
:103B400091461F468A680B69DDF820809342B8BF12
:103B50001346C9F8003091F8432006460C4612B1CE
:103B60000133C9F800302368990642BFD9F8003004
:103B70000233C9F80030256815F0060507D104F1B5
:103B8000190AE368D9F800209B1AAB4228DC94F8A4
:103B900043302268003318BF012392062DD404F16C
:103BA000430239463046C047013020D02368E568DB
:103BB000D9F8002003F00603042B08BFAD1AA36850
:103BC00022690CBF25EAE57500259342C4BF9B1A04
:103BD000ED184FF000091A344D451AD1002008E0C5
:103BE0000123524639463046C047013003D14FF0D9
:103BF000FF30BDE8F0870135C3E7E1185A1C3020DB
:103C000081F84300224494F8451082F843100233AF
:103C1000C5E70123224639463046C0470130E6D089
:103C200009F10109D8E700002DE9F04301F1430C47
:103C30000C46097E85B06E291746064698460C9AB2
:103C400000F0B38022D8632936D00AD8002900F0CA
:103C5000B980582900F0838004F1420584F84210AD
:103C600032E0642901D06929F6D12068136805067D
:103C700003F104012AD51B681160002B03DA2D2201
:103C80005B4284F843206F480A2239E0732900F030
:103C90009D8008D86F2920D07029DDD1236843F09A
:103CA0002003236003E0752917D07829D4D1782325
:103CB00084F84530644855E01368191D1B6811608D
:103CC00004F1420584F8423001238CE01B68116046
:103CD00010F0400F18BF1BB2CFE713682568181DFE
:103CE0001060280601D51B6802E06806FBD51B881A
:103CF00054486F2914BF0A220822002184F8431077
:103D00006568A560002DC0F29580216821F004014E
:103D10002160002B3DD1002D40F08E806546082AA1
:103D20000BD12368DB0708D5236962689A42DEBF9E
:103D3000302305F8013C05F1FF35ACEB05032361A9
:103D4000CDF800803B4603AA21463046FFF7F6FE39
:103D500001304DD14FF0FF3005B0BDE8F083394858
:103D600084F84510136821681D1D1B6815600A063C
:103D70000BD5CA0744BF41F0200121601BB922685E
:103D800022F0200222601022B7E74D0648BF9BB206
:103D9000EFE76546B3FBF2F102FB1133C35C05F8B4
:103DA000013D0B460029F5D1B9E713682568616923
:103DB000181D106028061B6801D5196002E06A060C
:103DC000FBD51980002323616546B9E71368191DE7
:103DD00011601D6862680021284600F049F808B1AA
:103DE000401B606063682361002384F84330A7E7C9
:103DF00023692A4639463046C0470130AAD0236895
:103E00009B0713D4E068039B9842B8BF1846A3E70A
:103E100001234A4639463046C04701309AD0013521
:103E2000E368039A9B1AAB42F2DCEBE7002504F14E
:103E30001909F5E7002BACD1037884F8423004F17E
:103E400042056CE72AA400083BA4000838B5064CDC
:103E50000023054608462360FDF7A2FA431C02D161
:103E6000236803B12B6038BD7C05002000000000F2
:103E700001F0FF01102A2BDB10F0070F08D010F81B
:103E8000013B013A8B422DD010F0070F42B3F6D11F
:103E9000F0B441EA012141EA014122F007047FF038
:103EA00000070023F0E80256083C85EA010586EA8F
:103EB000010685FA47F5A3FA87F586FA47F6A5FACB
:103EC00087F68EB9EED1F0BC01F0FF0102F00702D7
:103ED00032B110F8013B013A83EA010313B1F8D182
:103EE0000020704701387047002D06BF3546033863
:103EF000073815F0010F07D1013015F4807F02BF9C
:103F0000013015F4C03F0130F0BC0138704700BFEC
:103F100010B5431E0A44914200D110BD11F8014B67
:103F200003F8014FF7E7884210B501EB020307D809
:103F3000421E99420AD011F8014B02F8014FF8E7EE
:103F40008342F5D98118D21AD34200D110BD13F89B
:103F5000014D01F8014DF7E770477047F8B5074686
:103F600014460E4621B91146BDE8F840FFF73CBCA7
:103F700022B9FFF7EBFB25462846F8BD00F014F800
:103F8000A0420FD221463846FFF72EFC05460028F6
:103F9000F2D031462246FFF7BBFF31463846FFF7E5
:103FA000D5FBE9E73546E7E751F8043C181F002B3D
:103FB000BCBF0B58C0187047E1050008E1050008B8
:103FC000E1050008E1050008E1050008E105000839
:103FD000E1050008E1050008E1050008E105000829
:103FE000E1050008E1050008E1050008E105000819
:103FF000E1050008E9050008E105000808000901DD
:104000000A020B030C040D07050F0E061011000029
:10401000410600085D0600087D0600089D060008B0
:10402000BD060008DD060008FD0600081D070008A3
:104030003D0700085D0700087D0700089D07000890
:10404000BD070008DD0700086D080008FD0700082F
:104050001D0800083109000831090008310900086D
:104060003109000831090008310900083109000848
:104070003109000831090008310900083109000838
:104080003109000831090008310900083109000828
:104090003909000831090008A1090008A109000830
:1040A000A1090008A1090008A1090008A109000848
:1040B000A1090008A1090008A1090008A109000838
:1040C000A1090008A1090008A1090008A109000828
:1040D000A9090008A1090008A109000805010000BC
:1040E00001000101010201030002010202020302B8
:1040F00003000301030203030001010102010301A4
:1041000000000100010101020001000201010201A1
:10411000010001010102020200010101020002018D
:10412000000201000101010200010101020102027D
:104130000100010101020200000000010101020171
:10414000000100020101010200010002010101025F
:10415000000100020101010200010002010101024F
:10416000000100020100010100010101010202023F
:10417000010101020200020100000100010102012F
:10418000000101000101010200010101010202011F
:10419000010001010102020100010100010102010F
:1041A00000000001010101020002010101020201FF
:1041B00001000101020102020001010001010200EF
:1041C0004D1100084D1100084D1100084D11000857
:1041D000291100084D1100084D1100084D1100086B
:1041E0004D1100084D1100084D1100084D11000837
:1041F000091100084D110008551100084D11000863
:10420000F9100008C1090008A10800086913000896
:104210005109000819120008D11200080906000807
:10422000446F6F7220746573740000004B6579628F
:104230006F61726420746573740000005465747259
:1042400069730000446973706C61792074657374DC
:10425000000000004D6F746F72207465737400006D
:10426000536F756E6420746573740000416C6172E5
:104270006D20746573740000D9110008D91100080D
:10428000D9110008D91100080B120008D911000833
:10429000D9110008D9110008D9110008D911000856
:1042A000D9110008D9110008FD110008D911000822
:1042B000D9110008E1110008D9110008AD12000859
:1042C000AD120008AD120008AD120008AD120008D2
:1042D000AD120008AD120008AD120008AD120008C2
:1042E000AD120008AD120008AD120008AD120008B2
:1042F000AD120008AD120008B5120008AD1200089A
:10430000091300080913000809130008091300081D
:1043100009130008091300086113000809130008B5
:1043200009130008091300080913000859130008AD
:104330005113000849130008251300083113000821
:1043400009130008537461636B206672616D653AEE
:104350000A000000205230203D2020253038580A25
:1043600000000000205231203D2020253038580A1E
:1043700000000000205232203D2020253038580A0D
:1043800000000000205233203D2020253038580AFC
:104390000000000020523132203D20253038580ADC
:1043A00000000000204C52203D2020253038580AC3
:1043B00000000000205043203D2020253038580ABE
:1043C0000000000020505352203D20253038580A6C
:1043D000000000004653522F4641523A0A000000A6
:1043E0002043465352203D2020253038580A0000F3
:1043F0002048465352203D2020253038580A0000DE
:104400002044465352203D2020253038580A0000D1
:104410002041465352203D2020253038580A0000C4
:10442000204D4D464152203D20253038580A00008D
:104430002042464152203D2020253038580A0000B5
:104440004D6973630A000000204C522F4558435FAA
:1044500052455455524E3D20253038580A00000030
:104460005B486172644661756C745D0A000000000F
:104470005B4275734661756C745D0A005B557361D0
:1044800067654661756C745D0A00000000000000FD
:10449000000000000102030406070809A0860100CD
:1044A000400D0300801A060000350C0040420F004A
:1044B00080841E0000093D0000127A000024F400F0
:1044C00000366E010048E801006CDC020011003A81
:1044D00001050036010000B20100010001000133B6
:1044E000013300B7013500B8012F012B012F00BBAC
:1044F000012400C0012C00C3010B00C4012000C630
:10450000011100D001A401A100E8010300E9010D9F
:104510000112010000E001D00100010001080111B9
:10452000011A012B01330142012601120121012F41
:10453000011100E101D001020109010D010D012766
:10454000012B01330142011701120111012F013129
:104550000021002A01000100010001EF002B0100F1
:1045600001000101013F0029536572676579204B05
:1045700068616261726F760053696D0052000000DD
:104580002041524D20436F727465782D4D3420695F
:104590006E73696465000000536F667477617265BD
:1045A0002056657273696F6E3A20000053544D3384
:1045B000324C3478782044656D6F206669726D776F
:1045C000617265004C696272617279002D2D2D2D2A
:1045D0002D2D2D2D2D2D2D0053657269616C204ED2
:1045E000756D6265723A2000542020202020312011
:1045F0002020200050726F64756374696F6E2044D0
:104600006174653A2000000032342D4A616E2D320B
:1046100030323000546563686E696369616E206F83
:104620007074696F6E733A200000000053656C650A
:10463000637420002C20000020616E64207072657D
:10464000737320004B657970616420546573742026
:1046500000000000204B6579000000005465737471
:10466000204F4B21205072657373200020746F20FF
:10467000636F6E74696E75652E000000536F756E02
:104680006420616C61726D207465737400000000B9
:1046900043757272656E7420736F756E64206C65FD
:1046A00076656C3A20000000446F6F722053656E8F
:1046B000736F722054657374200000004F70656E34
:1046C00000000000436C6F7365000000507265735A
:1046D00073200000204B657920746F20436F6E7447
:1046E000696E7565000000004D6F746F7220726F07
:1046F000746174696F6E207465737400506C6561C9
:10470000736520636865636B206D6F746F722072D0
:104710006F746174696F6E0020746F20696E6372CC
:104720006561736520616E6420000000746F206411
:104730006563726561736520746865206D6F746F61
:10474000722073706565640020746F2065786974E9
:104750000000000048696768207072696F726974B0
:104760007920616C61726D00202D204C65667400AB
:10477000202D20526967687400000000202D20520F
:104780006F74617465000000202D20446F776E0007
:10479000202D204E6577000053636F726573000013
:1047A00047616D65000000004F76657200000000F3
:1047B0004E6578743A000000000000000000000020
:1047C0000000001C00007E0001E6000786001F0CB0
:1047D000003C0C00F00C03C0180F00183C3E187889
:1047E00041306049307841303C3E180F001803C01A
:1047F0001800F00C003C0C001F0C0007860001E6BE
:1048000000007E00001C000000000000000000000E
:104810000000000000000000000000000000000098
:104820000000000000000000000000000000000088
:1048300000000000000000004200007F0000400077
:104840000000000000000000000000000000000068
:104850000000000000000000000000000000000058
:104860000000000000000000000000000000000048
:104870000000000000000000000000000000000038
:1048800000000000000000000000000000420000E6
:1048900061000051000049000046000000000000D7
:1048A0000000000000000000000000000000000008
:1048B00000000000000000000000000000000000F8
:1048C00000000000000000000000000000000000E8
:1048D00000000000000000000000000000000000D8
:1048E00000000000002100004100004500004B00D6
:1048F0000031000000000000000000000000000087
:1049000000000000000000000000000000000000A7
:104910000000000000000000000000000000000097
:1049200000001C00003E000036000077000063001D
:1049300000C18000C1800180C00180C003186007F1
:1049400014700612300E7F380C10181C001C180052
:104950000C300006301C0660FF8367E3F37F007FA6
:1049600038000E0000000000000000000000000001
:104970000000000000000000003800007E0000671A
:10498000800061E00030F800303C00300F00180378
:10499000C01800F018273C0C451E0C45060C451E9F
:1049A00018393C1800F01803C0300F00303C0030BC
:1049B000F80061E0006780007E0000380000000021
:1049C00000000000000000000000000000000000E7
:1049D00000000000000000000000000000000000D7
:1049E000000000000000000000000000003C00008B
:1049F0004A000049000049000030000000000000AB
:104A000000000000000000000000000000000000A6
:104A10000000000000000000000000000000000096
:104A20000000000000000000000000000000000086
:104A30000000000000000000000000000000000076
:104A400000000000000100007100000900000500E6
:104A50000003000000000000000000000000000053
:104A60000000000000000000000000000000000046
:104A70000000000000000000000000000000000036
:104A80000000000000000000000000000000000026
:104A900000000000000000000000000000360000E0
:104AA00049000049000049000036000000000000F5
:104AB00000000000000000000000000000000000F6
:104AC00000000000000000000000000000000000E6
:104AD00000000000000000000000000000000000D6
:104AE00000000000000000000000000000000000C6
:104AF00000000000000600004900004900002900F5
:104B0000001E000000000000000000000000000087
:104B10000000000000000000000000000000000095
:104B200000000000000000007FFFFE1FFFF80000F3
:104B300000000000000003FFC007FFE00E00700C43
:104B4000003018001818001830000C33FECC33FE6B
:104B5000CC30000C30000C30180C30180C30180C15
:104B600030180C31FF8C31FF8C30180C30180C18B9
:104B700018181818180C00300E007007FFE003FF1B
:104B8000C000000000000000000000000000000065
:104B9000000000000000000000000000000FF8000E
:104BA0000FF8000FFE000FFF800FF9C00FF8600F25
:104BB000F8600FF8600FF8600FF9C00FFF800FFE6C
:104BC000000FF8000FF800000000000000000000D7
:104BD00000000000000000000000000000000000D5
:104BE00000000000000000000000000000000000C5
:104BF000000000000003FFC007FFE007FFE007FF21
:104C0000E007FFE007FFE007FFE007FFE007FFE046
:104C100007FFE007FFE007FFE007FFE007FFE00313
:104C2000FFC00000000000000000000000000000C5
:104C30000000000000000000000000000000000074
:104C4000000000000000000000000000000FFFE076
:104C500007FFC007FFC003FF8003FF8001FF0001C3
:104C6000FF0000FE0000FE00007C00007C00003819
:104C700000003800001000000000000000000000EC
:104C80000000000000000000000000000000000024
:104C9000000000000000000000000000007E000195
:104CA000FF800381C00600600C003018000018006F
:104CB000003000003000003003FE3003FE30000002
:104CC0003000001800001800000C003006006003DF
:104CD00081C001FF80007E00000000000000000095
:104CE00000000000000000000000000000000000C4
:104CF0000038000E7F007F67E3F360FF83301C06FF
:104D000030000618000C1C001C0C601806603006F1
:104D100000300300600300600300600180C0018078
:104D2000C000C18000C18000630000770000360031
:104D3000003E00001C000000000000000000000019
:104D40000000000FFFE007FFC003FF8001FF00002D
:104D5000FE00007C000038000010000000000FFF83
:104D6000E007FFC003FF8001FF0000FE00007C00A1
:104D70000038000010000000000FFFE007FFC00334
:104D8000FF8001FF0000FE00007C000038000010E2
:104D900000000000000000001FFFF87FFFFE000081
:104DA00010100000685D0008805D0008985D000834
:104DB000B05D0008C85D0008E05D0008F85D00080F
:104DC000105E0008285E0008405E0008585E00087B
:104DD000705E0008885E0008A05E0008B85E0008EB
:104DE000D05E0008E85E0008005F0008185F000859
:104DF000305F0008485F0008605F0008785F0008C7
:104E0000905F0008A85F0008C05F0008D85F000836
:104E1000F05F0008086000082060000838600008A3
:104E20005060000868600008806000089860000812
:104E3000B0600008C8600008E0600008F860000882
:104E400010610008286100084061000858610008EE
:104E50007061000888610008A0610008B86100085E
:104E6000D0610008E86100080062000818620008CC
:104E7000306200084862000860620008786200083A
:104E800090620008A8620008C0620008D8620008AA
:104E9000F062000808630008206300083863000817
:104EA0005063000868630008806300089863000886
:104EB000B0630008C8630008E0630008F8630008F6
:104EC0001064000828640008406400085864000862
:104ED0007064000888640008A0640008B8640008D2
:104EE000D0640008E8640008006500081865000840
:104EF00030650008486500086065000878650008AE
:104F000090650008A8650008C0650008D86500081D
:104F1000F06500080866000820660008386600088A
:104F200038660008386600083866000838660008E9
:104F300038660008386600083866000838660008D9
:104F400038660008386600083866000838660008C9
:104F500038660008386600083866000838660008B9
:104F600038660008386600083866000838660008A9
:104F70005066000850660008506600085066000839
:104F80005066000850660008506600085066000829
:104F90005066000850660008506600085066000819
:104FA0005066000850660008506600085066000809
:104FB00050660008506600085066000850660008F9
:104FC00050660008506600085066000850660008E9
:104FD00050660008506600085066000850660008D9
:104FE0005066000868660008686600086866000881
:104FF0006866000868660008686600086866000859
:105000006866000868660008686600086866000848
:105010006866000868660008686600086866000838
:105020008066000880660008986600089866000898
:1050300098660008B0660008C8660008C8660008E0
:10504000C8660008C8660008C8660008C866000888
:10505000C8660008C8660008C8660008C866000878
:10506000C8660008C8660008C8660008C866000868
:10507000C8660008C8660008C8660008C866000858
:10508000C8660008C8660008C8660008C866000848
:10509000C8660008C8660008C8660008C866000838
:1050A000C8660008E0660008F8660008F8660008B0
:1050B000F86600081067000810670008106700080D
:1050C00010670008106700082867000828670008B4
:1050D0002867000828670008406700084067000844
:1050E00040670008406700084067000858670008EC
:1050F000586700087067000870670008706700084C
:10510000886700088867000888670008A0670008AB
:10511000B8670008B8670008D0670008D0670008C3
:10512000D067000818080000EC670008086800084D
:10513000286800085468000880680008C4680008EF
:10514000FC68000810690008306900085069000810
:1051500074690008A0690008BC690008DC690008DF
:10516000F8690008146A0008406A00086C6A0008C0
:10517000986A0008C46A0008F06A00081C6B0008FE
:10518000486B0008746B0008A06B0008CC6B00082B
:10519000E86B0008046C0008346C0008646C0008BC
:1051A000946C0008C06C00080C6D0008406D00088D
:1051B000746D0008AC6D0008E46D00081C6E0008FA
:1051C000506E00088C6E0008C06E0008DC6E00088F
:1051D000046F00083C6F0008686F0008A86F0008A3
:1051E000E06F00081C700008507000088C70000808
:1051F000C4700008F87000082C7100086071000885
:1052000098710008E4710008187200084C720008D8
:105210007C72000898720008B47200084C73000891
:10522000E4730008107400082C7400085874000817
:1052300084740008B0740008DC7400080875000865
:1052400028750008547500088075000898750008D6
:10525000B0750008D8750008EC7500082C760008B9
:105260005876000884760008B0760008DC760008DE
:10527000FC76000828770008487700087477000853
:10528000A0770008D8770008047800083078000874
:105290005C78000888780008A4780008D0780008B6
:1052A000E8780008E8780008E8780008E87800085E
:1052B000E8780008E8780008E8780008E87800084E
:1052C000E8780008E8780008E8780008E87800083E
:1052D000E8780008E8780008E8780008E87800082E
:1052E000E8780008E8780008E8780008E87800081E
:1052F000E8780008087900080879000808790008AB
:105300000879000808790008087900080879000879
:105310000879000808790008087900080879000869
:105320000879000808790008087900080879000859
:105330000879000808790008087900080879000849
:105340000879000808790008087900080879000839
:105350000879000808790008087900080879000829
:1053600008790008087900080879000834790008ED
:105370003479000834790008347900083479000859
:105380003479000834790008347900083479000849
:105390003479000834790008347900083479000839
:1053A00034790008347900086879000868790008C1
:1053B0009C7900089C7900089C790008D079000845
:1053C000FC790008FC790008FC790008FC790008E9
:1053D000FC790008FC790008FC790008FC790008D9
:1053E000FC790008FC790008FC790008FC790008C9
:1053F000FC790008FC790008FC790008FC790008B9
:10540000FC790008FC790008FC790008FC790008A8
:10541000FC790008FC790008FC790008FC79000898
:10542000FC790008FC790008FC790008287A00085B
:10543000547A0008547A0008547A0008807A0008E8
:10544000AC7A0008AC7A0008AC7A0008AC7A0008A4
:10545000C87A0008C87A0008C87A0008C87A000824
:10546000F47A0008F47A0008F47A0008F47A000864
:10547000207B0008207B00084C7B00084C7B000848
:105480004C7B0008787B0008787B0008787B00085C
:10549000A47B0008D07B0008D07B0008EC7B0008D0
:1054A000EC7B0008EC7B000820200000107C00084A
:1054B000387C0008687C0008B87C0008087D00087B
:1054C000787D0008D07D0008F87D0008307E000857
:1054D000647E0008A47E0008F47E00081C7F00089B
:1054E0004C7F0008747F0008A07F0008EC7F000854
:1054F0003480000880800008CC80000814810008F7
:105500005C810008A4810008EC8100083882000852
:1055100080820008A8820008D0820008208300084A
:1055200070830008C0830008088400088C84000889
:10553000E88400083C85000898850008F485000888
:105540004886000898860008F886000850870008FA
:1055500074870008B4870008108800085C88000879
:10556000C0880008188900087C890008D0890008D4
:10557000348A0008948A0008E88A00083C8B0008F6
:10558000948B0008F08B00086C8C0008C48C000819
:10559000208D0008748D0008F48D00081C8E000812
:1055A000B88E00086C8F0008B88F000800900008C3
:1055B00000900008449000088C900008D8900008E3
:1055C00020910008549100089C910008DC9100088B
:1055D0000092000824920008689200088C9200084B
:1055E000F09200083093000878930008BC930008FC
:1055F000049400083494000878940008A8940008E3
:10560000F09400083C950008A0950008E495000877
:105610002C96000870960008C4960008EC960008C6
:105620004097000864970008649700086497000892
:10563000649700086497000864970008649700085E
:10564000649700086497000864970008649700084E
:10565000649700086497000864970008649700083E
:10566000649700086497000864970008649700082E
:1056700064970008649700089897000898970008B6
:10568000989700089897000898970008989700083E
:10569000989700089897000898970008989700082E
:1056A000989700089897000898970008989700081E
:1056B000989700089897000898970008989700080E
:1056C00098970008989700089897000898970008FE
:1056D00098970008989700089897000898970008EE
:1056E00098970008989700089897000898970008DE
:1056F000E0970008E0970008E0970008E0970008AE
:10570000E0970008E0970008E0970008E09700089D
:10571000E0970008E0970008E0970008E09700088D
:10572000E0970008E0970008E09700083C98000820
:105730003C9800083C9800083C9800083C980008F9
:1057400098980008E0980008E0980008E0980008A1
:10575000E0980008E0980008E0980008E098000849
:10576000E0980008E0980008E0980008E098000839
:10577000E0980008E0980008E0980008E098000829
:10578000E0980008E0980008E0980008E098000819
:10579000E0980008E0980008E0980008E098000809
:1057A000E0980008E0980008E0980008E0980008F9
:1057B00028990008709900087099000870990008ED
:1057C000B8990008009A0008009A0008009A00089A
:1057D000009A0008289A0008289A0008289A0008C9
:1057E000289A0008709A0008709A0008709A0008B9
:1057F000709A0008BC9A0008BC9A0008049B000834
:10580000049B0008049B00084C9B00084C9B00086C
:105810004C9B0008949B0008DC9B0008DC9B000864
:10582000009C0008009C0008009C0008080800007C
:105830000C9C00081C9C00082C9C00083C9C000848
:105840004C9C00085C9C00086C9C00087C9C000838
:105850008C9C00089C9C0008AC9C0008BC9C000828
:10586000CC9C0008DC9C0008EC9C0008FC9C000818
:105870000C9D00081C9D00082C9D00083C9D000804
:105880004C9D00085C9D00086C9D00087C9D0008F4
:105890008C9D00089C9D0008AC9D0008BC9D0008E4
:1058A000CC9D0008DC9D0008EC9D0008FC9D0008D4
:1058B0000C9E00081C9E00082C9E00083C9E0008C0
:1058C0004C9E00085C9E00086C9E00087C9E0008B0
:1058D0008C9E00089C9E0008AC9E0008BC9E0008A0
:1058E000CC9E0008DC9E0008EC9E0008FC9E000890
:1058F0000C9F00081C9F00082C9F00083C9F00087C
:105900004C9F00085C9F00086C9F00087C9F00086B
:105910008C9F00089C9F0008AC9F0008BC9F00085B
:10592000CC9F0008DC9F0008EC9F0008FC9F00084B
:105930000CA000081CA000082CA000083CA0000837
:105940004CA000085CA000086CA000087CA0000827
:105950008CA000089CA00008ACA00008BCA0000817
:10596000CCA00008DCA00008ECA00008FCA0000807
:105970000CA100081CA100082CA100083CA10008F3
:105980004CA100085CA100086CA100087CA10008E3
:105990008CA100089CA10008ACA10008BCA10008D3
:1059A000C8A10008D8A10008E8A10008E8A10008E3
:1059B000E8A10008E8A10008E8A10008E8A10008A3
:1059C000E8A10008E8A10008E8A10008E8A1000893
:1059D000E8A10008E8A10008E8A10008E8A1000883
:1059E000E8A10008E8A10008E8A10008E8A1000873
:1059F000E8A10008E8A10008E8A10008E8A1000863
:105A0000E8A10008E8A10008E8A10008E8A1000852
:105A1000E8A10008E8A10008E8A10008E8A1000842
:105A2000E8A10008E8A10008E8A10008E8A1000832
:105A3000E8A10008E8A10008E8A10008E8A1000822
:105A4000E8A10008E8A10008E8A10008E8A1000812
:105A5000E8A10008E8A10008E8A10008E8A1000802
:105A6000E8A10008E8A10008E8A10008E8A10008F2
:105A7000E8A10008E8A10008E8A10008E8A10008E2
:105A8000E8A10008E8A10008E8A10008E8A10008D2
:105A9000E8A10008E8A10008E8A10008E8A10008C2
:105AA000E8A10008E8A10008E8A10008E8A10008B2
:105AB000E8A10008E8A10008F8A10008F8A1000882
:105AC000F8A1000808A2000818A2000818A20008FF
