:020000040800F2
:100000000000012001030008090300081103000893
:10001000650300086D030008C1030008000000002C
:1000200000000000000000000000000015040008AF
:100030001D04000800000000250400087D410008A0
:100040004B04000857040008630400086F0400080C
:100050007B04000887040008930400089F0400083C
:10006000AB040008B7040008C3040008CF0400086C
:10007000DB040008E7040008F3040008FF0400089C
:100080000B05000817050008230500082F050008C8
:100090003B05000847050008530500085F050008F8
:1000A0006B05000877050008830500088F05000828
:1000B0009B050008F9210008B3050008BF050008EA
:1000C000CB050008D7050008E3050008EF05000888
:1000D000FB05000807060008130600081F060008B5
:1000E0002B06000837060008430600084F060008E4
:1000F0005B06000867060008730600087F06000814
:100100008B06000897060008A3060008AF06000843
:10011000BB060008C7060008D1210008DF0600085A
:10012000EB060008F7060008030700080F070008A1
:100130001B07000827070008330700083F070008CF
:100140004B07000857070008630700086F070008FF
:100150007B07000887070008930700089F0700082F
:10016000AB070008B7070008C3070008CF0700085F
:10017000DB070008E7070008F3070008000000009D
:10018000FF0700080B08000880B58EB000AF01F033
:1001900091FE494B494A1A60494B484A1A60494BFB
:1001A0003B63494BFB62494BBB62FB6A7B6207E0E6
:1001B0003A6B131D3B637B6A191D796212681A60E2
:1001C000BA6A7B6A9A42F3D83B4B1B68404A934217
:1001D00004D13B4B1B683F4A934200D0FEE73E4BA5
:1001E000364A1A603D4B354A1A603D4B3B623D4BE7
:1001F000FB613B6ABB6104E0BB691A1DBA61002266
:100200001A60FA69BB699A42F6D8334B1B68002B17
:1002100003D1324B1B68002B00D0FEE701F058FEE3
:100220003A463B1D1146184601F004FE2E4A2F4B5C
:10023000D31A9B10FB600023BB6007E02B4ABB680E
:1002400052F823309847BB680133BB60FA68BB683B
:100250009A42F3DC264A274BD31A9B10FB600023FB
:10026000BB6007E0234ABB6852F823309847BB685D
:100270000133BB60FA68BB689A42F3DC7B683A687A
:100280001146184603F0DEF978631B4A1B4BD31A5C
:100290009B107B617B693B6108E03B69013B174A2E
:1002A00052F8233098473B69013B3B613B69002B87
:1002B000F3DC786B01F084FD00000020BABADECADE
:1002C000F400002080C0000800000020F80000209A
:1002D0007856341232547698F8000020A005002099
:1002E000F8000020A405002040080008400800088D
:1002F00040080008400800084008000840080008BE
:1003000080B500AFFFF740FF80B400AF00BEFEE74E
:100310001EF0040F0CBFEFF30880EFF30980714665
:10032000454A104700BF80B588B002AF7860396099
:100330000A4B5B6B7B61094B9B6B3B61074B9B6A79
:10034000FB60074801F088FD3B6800933B697A69D0
:10035000F968786801F0C2FD00BEFEE700ED00E03C
:100360009C60000880B400AF00BEFEE71EF0040FE2
:100370000CBFEFF30880EFF3098071462F4A104756
:1003800000BF80B588B002AF786039600A4B5B6B04
:100390007B61094B9B6B3B61074B9B6AFB6007488A
:1003A00001F05AFD3B6800933B697A69F968786807
:1003B00001F094FD00BEFEE700ED00E0AC60000837
:1003C0001EF0040F0CBFEFF30880EFF309807146B5
:1003D0001B4A104700BF80B588B002AF7860396013
:1003E0000A4B5B6B7B61094B9B6B3B61074B9B6AC9
:1003F000FB60074801F030FD3B6800933B697A6978
:10040000F968786801F06AFD00BEFEE700ED00E0E3
:10041000B860000880B400AF00BEFEE780B400AF53
:1004200000BEFEE780B400AF00BEFEE780B400AFC0
:1004300000BFBD4680BC7047270300088303000847
:10044000D703000880B400AFFEE780B500AFFFF728
:10045000F9FF00BF80BD80B500AFFFF7F3FF00BF1D
:1004600080BD80B500AFFFF7EDFF00BF80BD80B558
:1004700000AFFFF7E7FF00BF80BD80B500AFFFF71B
:10048000E1FF00BF80BD80B500AFFFF7DBFF00BF1D
:1004900080BD80B500AFFFF7D5FF00BF80BD80B540
:1004A00000AFFFF7CFFF00BF80BD80B500AFFFF703
:1004B000C9FF00BF80BD80B500AFFFF7C3FF00BF1D
:1004C00080BD80B500AFFFF7BDFF00BF80BD80B528
:1004D00000AFFFF7B7FF00BF80BD80B500AFFFF7EB
:1004E000B1FF00BF80BD80B500AFFFF7ABFF00BF1D
:1004F00080BD80B500AFFFF7A5FF00BF80BD80B510
:1005000000AFFFF79FFF00BF80BD80B500AFFFF7D2
:1005100099FF00BF80BD80B500AFFFF793FF00BF1C
:1005200080BD80B500AFFFF78DFF00BF80BD80B5F7
:1005300000AFFFF787FF00BF80BD80B500AFFFF7BA
:1005400081FF00BF80BD80B500AFFFF77BFF00BF1C
:1005500080BD80B500AFFFF775FF00BF80BD80B5DF
:1005600000AFFFF76FFF00BF80BD80B500AFFFF7A2
:1005700069FF00BF80BD80B500AFFFF763FF00BF1C
:1005800080BD80B500AFFFF75DFF00BF80BD80B5C7
:1005900000AFFFF757FF00BF80BD80B500AFFFF78A
:1005A00051FF00BF80BD80B500AFFFF74BFF00BF1C
:1005B00080BD80B500AFFFF745FF00BF80BD80B5AF
:1005C00000AFFFF73FFF00BF80BD80B500AFFFF772
:1005D00039FF00BF80BD80B500AFFFF733FF00BF1C
:1005E00080BD80B500AFFFF72DFF00BF80BD80B597
:1005F00000AFFFF727FF00BF80BD80B500AFFFF75A
:1006000021FF00BF80BD80B500AFFFF71BFF00BF1B
:1006100080BD80B500AFFFF715FF00BF80BD80B57E
:1006200000AFFFF70FFF00BF80BD80B500AFFFF741
:1006300009FF00BF80BD80B500AFFFF703FF00BF1B
:1006400080BD80B500AFFFF7FDFE00BF80BD80B567
:1006500000AFFFF7F7FE00BF80BD80B500AFFFF72A
:10066000F1FE00BF80BD80B500AFFFF7EBFE00BF1D
:1006700080BD80B500AFFFF7E5FE00BF80BD80B54F
:1006800000AFFFF7DFFE00BF80BD80B500AFFFF712
:10069000D9FE00BF80BD80B500AFFFF7D3FE00BF1D
:1006A00080BD80B500AFFFF7CDFE00BF80BD80B537
:1006B00000AFFFF7C7FE00BF80BD80B500AFFFF7FA
:1006C000C1FE00BF80BD80B500AFFFF7BBFE00BF1D
:1006D00080BD80B500AFFFF7B5FE00BF80BD80B51F
:1006E00000AFFFF7AFFE00BF80BD80B500AFFFF7E2
:1006F000A9FE00BF80BD80B500AFFFF7A3FE00BF1D
:1007000080BD80B500AFFFF79DFE00BF80BD80B506
:1007100000AFFFF797FE00BF80BD80B500AFFFF7C9
:1007200091FE00BF80BD80B500AFFFF78BFE00BF1C
:1007300080BD80B500AFFFF785FE00BF80BD80B5EE
:1007400000AFFFF77FFE00BF80BD80B500AFFFF7B1
:1007500079FE00BF80BD80B500AFFFF773FE00BF1C
:1007600080BD80B500AFFFF76DFE00BF80BD80B5D6
:1007700000AFFFF767FE00BF80BD80B500AFFFF799
:1007800061FE00BF80BD80B500AFFFF75BFE00BF1C
:1007900080BD80B500AFFFF755FE00BF80BD80B5BE
:1007A00000AFFFF74FFE00BF80BD80B500AFFFF781
:1007B00049FE00BF80BD80B500AFFFF743FE00BF1C
:1007C00080BD80B500AFFFF73DFE00BF80BD80B5A6
:1007D00000AFFFF737FE00BF80BD80B500AFFFF769
:1007E00031FE00BF80BD80B500AFFFF72BFE00BF1C
:1007F00080BD80B500AFFFF725FE00BF80BD80B58E
:1008000000AFFFF71FFE00BF80BD80B500AFFFF750
:0608100019FE00BF80BDCF
:1008180080C0000800000020F800002080C0000808
:100828000000001000000010F8000020A4050020BF
:08083800000000100000001098
:1008400080B500AF03F056F900BF80BD80B582B01F
:1008500000AF786003F04EF903F06CF9032003F069
:100860001DF9044803F07AFD01F012F900BF0837C2
:10087000BD4680BD7908000880B582B000AF7860C1
:1008800002F03EFD094B1B78002B03D0074B0022E2
:100890001A7001E003F03EF94FF47A720021044827
:1008A00003F0E2FC00BF0837BD4680BDFC0000201D
:1008B0007908000880B582B000AF0023FB710BE01F
:1008C000FB790D4A52F82320FB791146184604F0B3
:1008D00073FAFB790133FB71FB79102BF0D9074BCD
:1008E00001221A70C8220021054803F0BDFC00BF98
:1008F0000837BD4680BD00BF085C0008FC00002032
:100900007908000880B483B000AF7860084B1B788A
:100910001A46084B9B5C002B05D1054B1B78013315
:10092000DAB2034B1A7000BF0C37BD4680BC70476B
:10093000FD0000204C5C000880B483B000AF7860FC
:10094000084B1B781A46084B9B5C012B05D1054BC5
:100950001B780133DAB2034B1A7000BF0C37BD4667
:1009600080BC7047FD0000204C5C000880B483B060
:1009700000AF7860084B1B781A46084B9B5C022B33
:1009800005D1054B1B780133DAB2034B1A7000BF57
:100990000C37BD4680BC7047FD0000204C5C000851
:1009A00080B483B000AF7860084B1B781A46084BC0
:1009B0009B5C032B05D1054B1B780133DAB2034B4B
:1009C0001A7000BF0C37BD4680BC7047FD00002088
:1009D0004C5C000880B483B000AF7860084B1B7893
:1009E0001A46084B9B5C042B05D1054B1B78013341
:1009F000DAB2034B1A7000BF0C37BD4680BC70479B
:100A0000FD0000204C5C000880B483B000AF78602B
:100A1000084B1B781A46084B9B5C052B05D1054BF0
:100A20001B780133DAB2034B1A7000BF0C37BD4696
:100A300080BC7047FD0000204C5C000880B483B08F
:100A400000AF7860084B1B781A46084B9B5C062B5E
:100A500005D1054B1B780133DAB2034B1A7000BF86
:100A60000C37BD4680BC7047FD0000204C5C000880
:100A700080B483B000AF7860084B1B781A46084BEF
:100A80009B5C072B05D1054B1B780133DAB2034B76
:100A90001A7000BF0C37BD4680BC7047FD000020B7
:100AA0004C5C000880B483B000AF7860084B1B78C2
:100AB0001A46084B9B5C082B05D1054B1B7801336C
:100AC000DAB2034B1A7000BF0C37BD4680BC7047CA
:100AD000FD0000204C5C000880B483B000AF78605B
:100AE000084B1B781A46084B9B5C092B05D1054B1C
:100AF0001B780133DAB2034B1A7000BF0C37BD46C6
:100B000080BC7047FD0000204C5C000880B483B0BE
:100B100000AF7860084B1B781A46084B9B5C0A2B89
:100B200005D1054B1B780133DAB2034B1A7000BFB5
:100B30000C37BD4680BC7047FD0000204C5C0008AF
:100B400080B483B000AF7860084B1B781A46084B1E
:100B50009B5C0B2B05D1054B1B780133DAB2034BA1
:100B60001A7000BF0C37BD4680BC7047FD000020E6
:100B70004C5C000880B483B000AF7860084B1B78F1
:100B80001A46084B9B5C0C2B05D1054B1B78013397
:100B9000DAB2034B1A7000BF0C37BD4680BC7047F9
:100BA000FD0000204C5C000880B483B000AF78608A
:100BB000084B1B781A46084B9B5C0D2B05D1054B47
:100BC0001B780133DAB2034B1A7000BF0C37BD46F5
:100BD00080BC7047FD0000204C5C000880B582B0EE
:100BE00000AF78600D4B1B781A460D4B9B5C0E2BAB
:100BF00006D10A4B1B780133DAB2084B1A7008E0B1
:100C0000064B1B78112B04D1064803F0A7FB00F01C
:100C10003FFF00BF0837BD4680BD00BFFD0000207C
:100C20004C5C0008910C000880B483B000AF786081
:100C3000084B1B781A46084B9B5C0F2B05D1054BC4
:100C40001B780133DAB2034B1A7000BF0C37BD4674
:100C500080BC7047FD0000204C5C000880B483B06D
:100C600000AF7860084B1B781A46084B9B5C102B32
:100C700005D1054B1B780133DAB2034B1A7000BF64
:100C80000C37BD4680BC7047FD0000204C5C00085E
:100C900080B582B000AF78600A4B1B781A460A4BC9
:100CA0009B5C184602F03AF8064B1B78112B04D8CF
:100CB000C8220021054803F0D7FA00BF0837BD4617
:100CC00080BD00BFFD0000204C5C0008910C0008B6
:100CD00080B582B000AF0F4B00221A700023FB7169
:100CE0000BE0FB790C4A52F82320FB791146184699
:100CF00004F062F8FB790133FB71FB79102BF0D91A
:100D0000C8220021054803F0AFFA00BF0837BD46EE
:100D100080BD00BFFD000020605C0008910C000851
:100D200080B500AF02F0E6FE00BF80BD80B582B0A6
:100D300000AF786002F0DEFE044803F00FFB00F025
:100D4000A7FE00BF0837BD4680BD00BF510D00089B
:100D500080B582B000AF7860164B1B68591C164BEB
:100D6000A3FB01235A0813465B001344CA1A114B14
:100D70001A60104B1B68012B09D0012B02D3022BE8
:100D80000AD00DE04FF4784002F032F908E04FF459
:100D9000FC6002F02DF903E01F2002F029F900BFEA
:100DA0004FF47A720021054803F05EFA00BF08375D
:100DB000BD4680BD00010020ABAAAAAA510D0008C3
:100DC00080B582B000AF0F4B00221A600023FB7188
:100DD0000BE0FB790C4A52F82320FB7911461846A8
:100DE00003F0EAFFFB790133FB71FB79102BF0D99B
:100DF000C8220021054803F037FA00BF0837BD4676
:100E000080BD00BF00010020A45C0008510D000857
:100E100080B500AF02F06EFE00BF80BD80B582B02D
:100E200000AF786002F066FE044803F097FA00F025
:100E30002FFE00BF0837BD4680BD00BF410E000831
:100E400080B582B000AF786001F0D6FEC8220021E4
:100E5000034803F009FA00BF0837BD4680BD00BF54
:100E6000410E000880B582B000AF0023FB710BE09B
:100E7000FB790B4A52F82320FB791146184603F000
:100E80009BFFFB790133FB71FB79102BF0D9C82252
:100E90000021044803F0E8F900BF0837BD4680BDD3
:100EA000E85C0008410E000880B500AF024800F081
:100EB000D0F900BF80BD00BF9805002080B500AF0D
:100EC000024800F0E6F900BF80BD00BF9805002091
:100ED00080B500AF024800F0FCF900BF80BD00BF44
:100EE0009805002080B500AF024800F08DF900BFE2
:100EF00080BD00BF9805002080B582B000AF1B4BBD
:100F000000221A601A4B01221A7002F099F900208F
:100F100002F03AF900F09AF8164B9B68184604F074
:100F200065F9154B01221A6000237B6016E000234F
:100F30003B600DE011497A6813469B0013445B0047
:100F4000CA183B68134400221A703B6801333B60A7
:100F50003B68092BEEDD7B6801337B607B68132BDC
:100F6000E5DD00BF0837BD4680BD00BFCC010020D5
:100F70009005002010E000E00400002004010020A3
:100F800080B584B000AF2D4800F0A3F92B4800F0E5
:100F9000DBF90346002B4DD00023FB603EE0274BDE
:100FA0001B781846254B93F901301A4624498300D3
:100FB00013449A00FB68134411F913303B721F4B22
:100FC0001B7818461D4B93F901301A461C498300C3
:100FD00013449A00FB6813445B000B4493F90130FF
:100FE0007B72164A3B1D023212881A8097F905302F
:100FF0001A467B7A5BB21A4497F9043019463B7A59
:101000005BB219440F4813469B0013445B00034432
:101010000B4401221A70FB680133FB60FB68032B51
:10102000BDDD094B1B68B3F1FF3F00D1FEE7064B66
:1010300001221A6000BF1037BD4680BD9805002010
:101040002C5D0008040100200400002080B582B05F
:1010500000AF7D237B600EE04FF6FF720A217868B7
:1010600001F0F2FF4FF6FF72D221786801F0ECFF39
:101070007B6801337B607B68E02BEDDD0A233B60FE
:101080000EE04FF6FF7239687D2001F0DDFF4FF66C
:10109000FF723968E12001F0D7FF3B6801333B6004
:1010A0003B68D22BEDDD00BF0837BD4680BD80B563
:1010B00084B000AF78600B467B807B6893F9013089
:1010C0000133DBB21A46920013445B00FB737B686A
:1010D00093F90030DBB21A46920013445B00DBB296
:1010E0007D33BB73BB7BF97B7A88184601F0C9FF5F
:1010F00000BF1037BD4680BD80B584B000AF034649
:10110000FB800023FB732BE0194B1B781A46184B0E
:1011100093F90130184697F90F30164992000244AE
:101120009200134431F81330BB8197F90C30DBB2D5
:101130000C33DBB25BB23B7297F90D30DBB20C3390
:10114000DBB25BB27B72FA8807F1080311461846DE
:10115000FFF7ADFF97F90F30DBB20133DBB2FB7362
:1011600097F90F30032BCFDD00BF1037BD4680BD90
:10117000940500202C5D000880B584B000AF786035
:101180000B467B800023FB7333E07B681B781A4699
:101190007B6893F90130184697F90F30194992008E
:1011A00002449200134431F81330BB817B6893F9F9
:1011B0000230DAB297F90C30DBB21344DBB25BB227
:1011C0003B727B6893F90330DAB297F90D30DBB2EA
:1011D0001344DBB25BB27B727A8807F108031146D5
:1011E0001846FFF764FF97F90F30DBB20133DBB22B
:1011F000FB7397F90F30032BC7DD00BF1037BD46D7
:1012000080BD00BF2C5D000880B582B000AF786063
:1012100000217868FFF7B0FF786800F09DF9034679
:10122000002B0DD17B6893F9013001335A4203F052
:10123000030302F0030258BF53425AB27B685A704C
:101240004FF6FF717868FFF797FF00BF0837BD467C
:1012500080BD80B582B000AF786000217868FFF76C
:101260008BFF786800F0C8F80346002B08D17B6834
:1012700093F90230DBB2013BDBB25AB27B689A7061
:101280004FF6FF717868FFF777FF00BF0837BD465C
:1012900080BD80B582B000AF786000217868FFF72C
:1012A0006BFF786800F000F90346002B08D17B68DB
:1012B00093F90230DBB20133DBB25AB27B689A7029
:1012C0004FF6FF717868FFF757FF00BF0837BD463C
:1012D00080BD80B582B000AF786000217868FFF7EC
:1012E0004BFF786800F030F80346002B08D17B688C
:1012F00093F90330DBB20133DBB25AB27B68DA70A8
:101300004FF6FF717868FFF737FF00BF0837BD461B
:1013100080BD80B485B000AFB8817B600B46FB72A6
:101320001346BB727B68BA7A1A707B68023307F186
:101330000C0212881A807B68FA7A5A7000BF143740
:10134000BD4680BC7047000080B485B000AF7860B7
:101350000023FB7341E07B681B781A467B6893F996
:101360000130184697F90F3021499200024492004B
:10137000134431F81330BB817A6807F10803023255
:1013800012881A8097F909301A4697F90D301344DC
:101390005A1C97F90830194697F90C30194415482A
:1013A00013469B0013445B0003440B4493F9003045
:1013B000002B01D0012315E097F909301A4697F95F
:1013C0000D3013440133132B01DD01230AE097F99B
:1013D0000F30DBB20133DBB2FB7397F90F30032B15
:1013E000B9DD002318461437BD4680BC704700BFE6
:1013F0002C5D00080401002080B485B000AF786047
:101400000023FB7341E07B681B781A467B6893F9E5
:101410000130184697F90F3021499200024492009A
:10142000134431F81330BB817A6807F108030232A4
:1014300012881A8097F909301A4697F90D301A4424
:1014400097F90830194697F90C300B44591E154886
:1014500013469B0013445B0003440B4493F9003094
:10146000002B01D0012315E097F908301A4697F9AF
:101470000C301344013B002B01DA01230AE097F9F9
:101480000F30DBB20133DBB2FB7397F90F30032B64
:10149000B9DD002318461437BD4680BC704700BF35
:1014A0002C5D00080401002080B485B000AF786096
:1014B0000023FB7341E07B681B781A467B6893F935
:1014C0000130184697F90F302149920002449200EA
:1014D000134431F81330BB817A6807F108030232F4
:1014E00012881A8097F909301A4697F90D301A4474
:1014F00097F90830194697F90C300B44591C1548D8
:1015000013469B0013445B0003440B4493F90030E3
:10151000002B01D0012315E097F908301A4697F9FE
:101520000C3013440133092B01DD01230AE097F944
:101530000F30DBB20133DBB2FB7397F90F30032BB3
:10154000B9DD002318461437BD4680BC704700BF84
:101550002C5D00080401002080B487B000AF7860E3
:101560007A6807F11003023212881A8000237B6127
:1015700056E07B681B7818467B6893F9013001338D
:101580005A4203F0030302F0030258BF53422949B1
:10159000820013449A007B69134431F81330BB81F5
:1015A00097F90C301A4697F910301344092B07DCD1
:1015B00097F90C301A4697F910301344002B01DAD2
:1015C000012331E097F90D301A4697F91130134491
:1015D000132B07DC97F90D301A4697F91130134495
:1015E000002B01DA01231FE097F911301A4697F911
:1015F0000D301A4497F91030194697F90C301944F8
:101600000D4813469B0013445B0003440B4493F9BD
:101610000030002B01D0012306E07B6901337B61A0
:101620007B69032BA5DD002318461C37BD4680BC13
:10163000704700BF2C5D00080401002080B582B017
:1016400000AF0023FB710023BB7113237B7164E0A7
:1016500001233B710023FB7017E097F9052097F9F0
:101660000310364813469B0013445B0003440B44AD
:1016700093F90030002B02D100233B7109E097F968
:101680000330DBB20133DBB2FB7097F90330092B77
:10169000E3DD97F90430002B39D097F90730DBB23E
:1016A0000133DBB2FB7197F9052097F906309A42B6
:1016B00001DD7B79BB710023BB701BE097F905202E
:1016C00097F902101D4813469B0013445B00034426
:1016D0000B4400221A707B797B70BB783B703B46D1
:1016E00000211846FFF7E3FC97F90230DBB2013323
:1016F000DBB2BB7097F90230092BDFDD97F90530BB
:10170000184600F01DF87B790133DBB27B7197F945
:101710000530DBB2013BDBB27B7197F90530002B62
:1017200096DA97F90730002B01D002F0D3F997F938
:10173000073018460837BD4680BD00BF04010020B1
:1017400080B584B000AF0346FB71FB79013BDBB28F
:10175000FB7352E00023BB7345E097F90F2097F924
:101760000E102A4813469B0013445B0003440B44AD
:1017700093F90030002B30D097F90F2097F90E1015
:10178000224813469B0013445B0003440B44002291
:101790001A7097F90F305A1C97F90E101B48134610
:1017A0009B0013445B0003440B4401221A70FB7B33
:1017B0007B73BB7B3B7307F10C0300211846FFF7DB
:1017C00076FCFB7B0133DBB25BB27B7307F10C036E
:1017D0004FF6FF711846FFF76AFC97F90E30DBB23F
:1017E0000133DBB2BB7397F90E30092BB5DD97F9E6
:1017F0000F30DBB2013BDBB2FB7397F90F30002BEC
:10180000A8DA00BF1037BD4680BD00BF040100202C
:1018100080B483B000AF0123FB7000237B6012E033
:1018200097F903200C4913469B0013445B00CA1828
:101830007B68134493F90030002B01D0012306E0AC
:101840007B6801337B607B68092BE9DD0023184648
:101850000C37BD4680BC70470401002080B582B0C3
:1018600000AF414B1B88BB80FFF7D2FF0346002B24
:1018700006D04FF0FF3001F087FC02F04BF96FE02B
:101880003A4B1B68002B69D0384B00221A60384B4A
:101890001B78002B2FD003F0CDFC0246354B83FB89
:1018A000021313449910D317C91A0B46DB005B1AB5
:1018B000D11ACAB2304B00217868FFF72AFD03F035
:1018C000B9FC02462B4B83FB021313449910D31728
:1018D000C91A0B46DB005B1AD11ACAB2274B00218A
:1018E0007868FFF716FD4FF6FF70FFF705FC204BF9
:1018F00000221A701EE0204A204B1B681360002053
:10190000FFF7FAFB03F096FC02461A4B83FB021327
:1019100013449910D317C91A0B46DB005B1AD11A6E
:10192000CAB2164B00217868FFF7F3FC4FF6FF7040
:10193000FFF7E2FB4FF6FF710F48FFF71DFCFFF7C3
:101940007DFE03461A460E4B1B6813440C4A136077
:101950000B4B1B68184601F017FC01E0FFF710FB6A
:1019600000BF0837BD4680BD0C5E000804000020A3
:1019700090050020932449929805002094050020AA
:10198000CC01002080B500AF02F0B4F800BF80BDEC
:1019900080B582B000AF786002F0ACF8084B1B78DD
:1019A000052B06D8064B1B780133DAB2044B1A70AC
:1019B00002E0034B00221A7000BF0837BD4680BD0D
:1019C000D001002080B582B000AF786002F092F8BC
:1019D000084B1B78002B06D0064B1B78013BDAB274
:1019E000044B1A7002E0034B06221A7000BF08373E
:1019F000BD4680BDD001002080B582B000AF7860C8
:101A000002F078F80A4B1B781A460A4B53F822303A
:101A1000002B09D0084802F0A1FC054B1B781A46A0
:101A2000044B53F82230984700BF0837BD4680BDAD
:101A3000D0010020240000205D1A000880B582B08B
:101A400000AF78607B68022B02D07B68032B01D14A
:101A500003F0FAF800BF0837BD4680BD80B582B0FC
:101A600000AF7860074B1B781A460721064801F043
:101A70000FFAC8220021054802F0F6FB00BF083724
:101A8000BD4680BDD0010020080000205D1A00087E
:101A900080B582B000AF0F4B00221A700023FB719B
:101AA0000BE0FB790C4A52F82320FB7911461846CB
:101AB00003F082F9FB790133FB71FB79102BF0D92C
:101AC00064220021054802F0CFFB00BF0837BD4665
:101AD00080BD00BFD0010020705E00085D1A0008C4
:101AE00080B500AF02F006F800BF80BD80B582B0BF
:101AF00000AF786001F0FEFF052001F019FE00BF85
:101B00000837BD4680BD80B582B000AF786001F077
:101B1000F1FF052001F02EFE00BF0837BD4680BD55
:101B200080B582B000AF786001F0E4FF01F056FEAE
:101B3000044802F013FCFFF7ABFF00BF0837BD46B7
:101B400080BD00BF491B000880B582B000AF78603F
:101B500001F09AF8C8220021034802F085FB00BF7B
:101B60000837BD4680BD00BF491B000880B582B064
:101B700000AF0023FB710BE0FB790C4A52F82320E5
:101B8000FB791146184603F017F9FB790133FB7115
:101B9000FB79102BF0D901F00BFEC822002104487C
:101BA00002F062FB00BF0837BD4680BDB45E00088E
:101BB000491B000880B500AF01F09CFF00BF80BD4D
:101BC00080B582B000AF786001F094FF032001F08F
:101BD00065FF044802F0C2FBFFF75AFF00BF083759
:101BE000BD4680BDE91B000880B582B000AF7860BB
:101BF0001B4B1B78002B0DD01A4B01221A7001F0E1
:101C00005FFF0346DBB2184600F0C6FF144B00220C
:101C10001A701AE0134B1B78184601F03FFF01F0D1
:101C20004FFF0346DBB2184600F0B6FF01F062FF3B
:101C30000C4B1B780133DAB20A4B1A70094B1B7834
:101C4000072B02D9074B01221A704FF47A72002138
:101C5000054802F009FB00BF0837BD4680BD00BF44
:101C6000D2010020D1010020E91B000880B582B01C
:101C700000AF0023FB710BE0FB790D4A52F82320E3
:101C8000FB791146184603F097F8FB790133FB7195
:101C9000FB79102BF0D9074B01221A70C8220021C2
:101CA000054802F0E1FA00BF0837BD4680BD00BF1D
:101CB000F85E0008D2010020E91B000880B400AFE4
:101CC00000BFBD4680BC704780B582B000AF786071
:101CD00001F030FF044802F041FBFFF7D9FE00BFDE
:101CE0000837BD4680BD00BF551D000880B582B0D5
:101CF00000AF7860FFF7E2F800BF0837BD4680BD4F
:101D000080B582B000AF7860FFF7ECF800BF08370D
:101D1000BD4680BD80B582B000AF7860FFF7C4F8E3
:101D200000BF0837BD4680BD80B582B000AF786087
:101D3000FFF7CEF800BF0837BD4680BD80B582B042
:101D400000AF786001F0F6FEFFF7D6F800BF083765
:101D5000BD4680BD80B582B000AF7860FFF77EFDE4
:101D60004FF4C8720021034802F07EFA00BF083722
:101D7000BD4680BD551D000880B582B000AF002370
:101D8000FB710BE0FB790C4A52F82320FB791146DA
:101D9000184603F011F8FB790133FB71FB79102B26
:101DA000F0D9FFF7A9F8C8220021044802F05CFA34
:101DB00000BF0837BD4680BD3C5F0008551D0008C8
:101DC00080B483B000AF7860FEE7000080B584B0D7
:101DD00000AF7860144B1B68002B02D1124B134AE2
:101DE0001A60114B1B68FB607B68033323F003030D
:101DF0007B600D4B1A687B6813440D4A934207D9E8
:101E000003F0CCF902460C2313604FF0FF3306E0D9
:101E1000054B1A687B681344034A1360FB68184635
:101E20001037BD4680BD00BFD4010020A4050020AE
:101E300000FC002080B483B000AF786039607B681C
:101E400001221A603B68034A1A6000BF0C37BD4686
:101E500080BC7047400000200FB480B582B000AF56
:101E600007F114033B603B683A6980210A4803F09C
:101E70007FFA78607B68002B05DD7B681946064891
:101E800000F00CF878607B6818460837BD46BDE85E
:101E9000804004B0704700BFDC01002080B483B0F4
:101EA00000AF786039604FF0FF3318460C37BD46FD
:101EB00080BC704780B500AF00F0A6F8024B034A23
:101EC0009A6000BF80BD00BF00ED00E00000000888
:101ED00080B500AF00F0C4F800BF80BD80B584B00D
:101EE00000AFF860B9607A603B603448FFF7B4FF38
:101EF000FB681B6819463248FFF7AEFFFB685B685A
:101F000019463048FFF7A8FFFB689B6819462E4822
:101F1000FFF7A2FFFB68DB6819462C48FFF79CFF20
:101F2000FB681B6919462A48FFF796FFFB685B6947
:101F300019462848FFF790FFFB689B691946264819
:101F4000FFF78AFFFB68DB6919462448FFF784FF27
:101F50002348FFF781FFB9682248FFF77DFF224B36
:101F6000DB6A19462148FFF777FF1F4B1B6B1946A9
:101F70001F48FFF771FF1C4BDB6B19461D48FFF72D
:101F80006BFFBB6803F08003002B03D079681A480D
:101F9000FFF762FFBB6803F40043002B03D03968EE
:101FA0001648FFF759FF1648FFF756FFB96915485D
:101FB000FFF752FF00BF1037BD4680BD805F0008AD
:101FC000905F0008A05F0008B05F0008C05F0008D5
:101FD000D05F0008E05F0008F05F000800600008C4
:101FE000106000081C60000800ED00E02C60000894
:101FF0003C6000084C6000085C6000086C600008F1
:102000007C6000088460000880B400AF124B1B683D
:10201000114A43F0010313600F4B00229A600E4BEC
:102020001B680D4A23F0A85323F4102313600A4BB6
:102030004FF48052DA60084B1B68074A23F4802370
:102040001360054B00229A61044B4FF000629A60C6
:1020500000BFBD4680BC70470010024000ED00E0AC
:1020600080B487B000AF0023FB6000237B610023B6
:102070003B610223BB6000237B6002233B604E4B2D
:102080001B6803F00803002B07D14B4BD3F89430A7
:102090001B0A03F00F037B6105E0474B1B681B091C
:1020A00003F00F037B61454A7B6952F823307B6163
:1020B000414B9B6803F00C030C2B65D801A252F82E
:1020C00023F000BFF92000088921000889210008B9
:1020D00089210008012100088921000889210008C0
:1020E00089210008092100088921000889210008A8
:1020F0008921000811210008314A7B69136047E0FB
:102100002F4B304A1A6043E02D4B2F4A1A603FE0B4
:10211000294BDB6803F003037B60274BDB681B095B
:1021200003F0070301333B607B68022B02D0032BD3
:1021300006D00BE0234A3B68B2FBF3F33B610BE0B4
:10214000214A3B68B2FBF3F33B6105E07A693B68E7
:10215000B2FBF3F33B6100BF174BDB681B0A03F0D4
:102160007F023B6902FB03F33B61134BDB685B0EB1
:1021700003F0030301335B00BB603A69BB68B2FB49
:10218000F3F30F4A136003E00D4A7B69136000BF4D
:10219000094B9B681B0903F00F030C4AD35CFB60DF
:1021A000074B1A68FB6822FA03F3054A136000BF65
:1021B0001C37BD4680BC704700100240D860000844
:1021C000480000200024F40000127A00C8600008D3
:1021D00080B500AF074B1B6903F00103002B07D04C
:1021E000044B1B69034A23F00103136101F0E0FE75
:1021F00000BF80BD0010004080B500AF074B1B69D9
:1022000003F00103002B07D0044B1B69034A23F0A2
:102210000103136101F0F6FE00BF80BD0004004021
:1022200080B582B000AF4FF090435B694FF09042B1
:1022300043F48053536100237B6002E07B680133E9
:102240007B607B68B3F57A7FF8DB4FF090435B6986
:102250004FF0904243F4007353614FF090435B6939
:102260004FF0904223F40063536100233B604BE046
:102270002A4A3B6812F81330002B02D0012B20D0E1
:102280003FE04FF090435B694FF0904223F480733E
:1022900053614FF090435B694FF0904223F48063A9
:1022A00053611E4A3B685B0013445A781C4B5A61C9
:1022B0004FF090435B694FF0904243F48073536159
:1022C0001FE04FF090435B694FF0904223F480731E
:1022D00053614FF090435B694FF0904243F4806349
:1022E00053610E4A3B685B0013445A780C4B5A61A9
:1022F0004FF090435B694FF0904243F48073536119
:1023000000BF3B6801333B603B684D2BB0D900F008
:1023100023F900BF0837BD4680BD00BF0861000833
:10232000000C004880B483B000AF0346FB804FF040
:1023300090435B694FF0904223F4807353614FF0F8
:1023400090435B694FF0904223F480635361084AE5
:10235000FB8853614FF090435B694FF0904243F428
:102360008073536100BF0C37BD4680BC704700BF0F
:10237000000C004880B483B000AF0346FB804FF0F0
:1023800090435B694FF0904223F4807353614FF0A8
:1023900090435B694FF0904243F480635361084A75
:1023A000FB8853614FF090435B694FF0904243F4D8
:1023B0008073536100BF0C37BD4680BC704700BFBF
:1023C000000C004880B483B000AF0346FB80044A91
:1023D000FB88138000BF0C37BD4680BC704700BF30
:1023E0006002002080B483B000AF0346FB80044A43
:1023F000FB88138000BF0C37BD4680BC704700BF10
:102400006202002090B583B000AF03460A46FB800D
:102410001346BB802A20FFF785FF0020FFF7AAFFA5
:10242000FB885B429CB200F0B7FF03469BB2E31A05
:102430009BB2F0339BB21846FFF79CFF0020FFF7DA
:1024400099FFF020FFF796FF2B20FFF76BFFBB886B
:102450001B0A9BB21846FFF78DFFBB88DBB29BB20D
:102460001846FFF787FF0120FFF784FF3F20FFF7A3
:1024700081FF054AFB881380044ABB88138000BF94
:102480000C37BD4690BD00BF5C0200205E020020FC
:1024900080B586B000AF0346FB80FB88FB82FB88DB
:1024A000B3F5A07F02D94FF4A073FB821A4B1A88B0
:1024B0001A4B1B8819461046FFF7A4FF174B1B88C1
:1024C0003B6121E02C20FFF72DFF0023FB6007E09C
:1024D000134B1B881846FFF74DFFFB680133FB6069
:1024E00000F05AFF03461A46FB689342F0DB0A4BA2
:1024F0001A880A4B1B8801339BB219461046FFF716
:1025000081FF3B6901333B61FB8A3A699A42D9DB1F
:1025100000BF1837BD4680BD5C0200205E0200206F
:102520006202002080B500AF4FF4A070FFF7B0FF4B
:10253000074B00221A8000F02FFF03469AB2054B8A
:102540001B8813449AB2034B1A8000BF80BD00BFA2
:102550005E0200205C02002080B500AF084B002224
:102560001A80084B00221A80074B40F2FF721A8033
:10257000064B00221A80082000F0D4FE00BF80BD68
:102580005C0200205E020020600200206202002047
:1025900080B58EB000AF0346FB7100237B63002340
:1025A0003B630023BB6200F001FFB86197F907307D
:1025B000203BBA699B0013445B687B617B691B7895
:1025C0001A46BB691B7803FB02F3BA69527893FB86
:1025D000F2F33B6100F018FFF860FB68FB62514BBF
:1025E0001A88514B1B8819461046FFF70BFF2C2009
:1025F000FFF798FE8DE0BB695B78102B0CD0202B89
:1026000015D0082B1ED17B695A68BB6A13441B780E
:102610007B6380233B6315E07B695A68BB6A5B0080
:1026200013441B887B634FF400433B630AE07B69E0
:102630005A68BB6A9B0013441B687B634FF00043DE
:102640003B6300BF00237B6229E07A6B3B6B134046
:10265000002B0FD000233B6207E0344B1B88184649
:10266000FFF788FE3B6A01333B623A6AFB689A4295
:10267000F3D30EE00023FB6107E02D4B1B881846C7
:10268000FFF778FEFB690133FB61FA69FB689A4248
:10269000F3D37B6B5B007B637B6A01337B62BB693B
:1026A0005B781A467B6A9342CFDBBB6A0133BB621D
:1026B000BB691A78BB695B78B2FBF3F3DBB21A46ED
:1026C000BB6AB3FBF2F102FB01F29B1A002B20D193
:1026D000144B1A88144B1B8801339BB219461046C1
:1026E000FFF790FE2C20FFF71DFEFB6A012B0ED991
:1026F000FB6A013BFB62BB691A78BB695B78B2FB82
:10270000F3F3DBB21A46BB6A9B1ABB6201E0FB68BB
:10271000FB62BA6A3B699A42FFF46DAF00BF38377B
:10272000BD4680BD5C0200205E02002060020020E9
:102730006202002080B58AB000AF0346FB71FB79CE
:10274000184600F06BFE03463B6100233B623B6989
:102750005B68FB608D4B1A888D4B1B8819461046B1
:10276000FFF750FE2C20FFF7DDFD43E0FB685A68C1
:102770003B6A13441B7887F827308023FB720023C1
:10278000FB6119E097F82720FB7A1340DBB2002B9E
:1027900005D03B691B881846FFF7ECFD04E07D4B34
:1027A0001B881846FFF7E6FD97F827305B0087F88F
:1027B0002730FB690133FB61FB69072BE2DD3B6AD4
:1027C00001333B62396A744BA3FB01235A08134659
:1027D0005B001344CA1A002A0CD16C4B1A886C4B4C
:1027E0001B8801339BB219461046FFF70BFE2C20C5
:1027F000FFF798FDFB681B781A4613465B001344ED
:102800001A463B6A9342B1D300233B623B699B6803
:10281000FB605E4B1A885E4B1B8819461046FFF71B
:10282000F1FD2C20FFF77EFD43E0FB685A683B6A10
:1028300013441B7887F827308023FB720023BB6189
:1028400019E097F82720FB7A1340DBB2002B05D064
:102850003B695B881846FFF78DFD04E03B691B88E8
:102860001846FFF787FD97F827305B0087F8273079
:10287000BB690133BB61BB69072BE2DD3B6A0133F6
:102880003B62396A444BA3FB01235A0813465B00A1
:102890001344CA1A002A0CD13C4B1A883C4B1B88A3
:1028A00001339BB219461046FFF7ACFD2C20FFF711
:1028B00039FDFB681B781A4613465B0013441A4621
:1028C0003B6A9342B1D300233B623B69DB68FB6008
:1028D0002E4B1A882E4B1B8819461046FFF792FD87
:1028E0002C20FFF71FFD43E0FB685A683B6A134446
:1028F0001B7887F827308023FB7200237B6119E067
:1029000097F82720FB7A1340DBB2002B05D03B69F8
:102910001B881846FFF72EFD04E01E4B1B88184647
:10292000FFF728FD97F827305B0087F827307B6991
:1029300001337B617B69072BE2DD3B6A01333B623C
:10294000396A154BA3FB01235A0813465B00134455
:10295000CA1A002A0CD10D4B1A880D4B1B88013363
:102960009BB219461046FFF74DFD2C20FFF7DAFC0D
:10297000FB681B781A4613465B0013441A463B6AF1
:102980009342B1D300BF2837BD4680BD5C02002012
:102990005E02002062020020ABAAAAAA80B582B023
:1029A00000AF786007E07B685A1C7A6093F90030CA
:1029B0001846FFF7EDFD7B6893F90030002BF2D14C
:1029C00000BF0837BD4680BD80B500AF082000F0CD
:1029D000A9FC01E0FFF7A6FD024B1B88EF2BF9D9FC
:1029E00000BF80BD5C02002080B500AFFFF79AFDFC
:1029F000082000F097FCFFF795FD00BF80BD80B573
:102A000000AFFFF7A9FDFFF7DFFF00BF80BD0000AB
:102A100080B582B000AFFFF79FFD082000F082FC78
:102A20004FF6FF70FFF7CEFCFFF77CFD202000F093
:102A300079FC1020FFF72CFD5D20FFF7A9FD5E203B
:102A4000FFF7A6FD2020FFF7A3FD474B1B88FB8067
:102A50004648FFF7A3FF444B1B88BB80082000F0CB
:102A600061FC4348FFF79AFF202000F05BFCFFF772
:102A700059FD082000F056FCFFF754FD202000F01F
:102A800051FC3C48FFF78AFFFFF74CFDFFF74AFD7A
:102A9000102000F047FC1020FFF7FAFC3648FFF743
:102AA0007DFFFFF73FFD0C2000F03CFCFFF73AFDF7
:102AB000102000F037FC1020FFF7EAFC4FF28340B3
:102AC000FFF780FC2D48FFF769FFFFF72BFD0C2077
:102AD00000F028FCFFF726FD102000F023FC10205A
:102AE000FFF7D6FC4FF6FF70FFF76CFC2448FFF7AA
:102AF00055FF9620FFF7CCFC2248FFF74FFFFFF76A
:102B000011FD0C2000F00EFCFFF70CFD102000F072
:102B100009FC1020FFF7BCFC1B48FFF73FFF962085
:102B2000FFF7B6FC1948FFF739FFFFF7FBFC0C2055
:102B300000F0F8FBFFF7F6FC102000F0F3FB10208C
:102B4000FFF7A6FC1248FFF729FF9620FFF7A0FC2D
:102B50001048FFF723FFFFF7E5FCFFF7E3FC00BF9A
:102B60000837BD4680BD00BF5E020020A46100089A
:102B7000B0610008B4610008CC610008E0610008A1
:102B8000F8610008006200080C6200081C6200087E
:102B9000286200083C62000880B58AB000AF034696
:102BA000FB71FFF7D9FC202000F0BCFB1048FFF7B9
:102BB000F5FEFFF7B7FC182000F0B4FBFFF7B2FCFE
:102BC0000C48FFF7EBFEFB7907F108010A221846D3
:102BD00002F002FB07F108031846FFF7DFFEFFF7DC
:102BE000A1FCFFF7F1FE00BF2837BD4680BD00BF46
:102BF000486200085C62000880B500AFFFF7ACFCDB
:102C0000202000F08FFB1A48FFF7C8FEFFF78AFC70
:102C1000FFF788FC482000F085FB4FF6E070FFF7D7
:102C2000D1FB144B1B6903F00103002B03D01248A6
:102C3000FFF7B4FE02E01148FFF7B0FEFFF772FCA9
:102C4000182000F06FFBFFF76DFCFFF76BFCFFF740
:102C500069FC0B48FFF7A2FE0E20FFF76BFD094849
:102C6000FFF79CFEFFF75EFCFFF7AEFE00BF80BDE6
:102C7000746200080008004888620008906200083A
:102C800098620008A062000880B500AFFFF764FCFE
:102C9000202000F047FB1B48FFF780FEFFF742FCB7
:102CA000182000F03FFBFFF73DFCFFF73BFC164808
:102CB000FFF774FEFFF736FC1448FFF76FFE0C2099
:102CC000FFF738FD1248FFF769FE0420FFF732FDD9
:102CD000FFF728FC0F48FFF761FEFFF723FCFFF723
:102CE00021FCFFF71FFC0948FFF758FE0F20FFF7F4
:102CF00021FD0948FFF752FEFFF714FCFFF764FEC1
:102D000000BF80BDB4620008C86200089862000875
:102D1000E4620008F86200081463000880B582B01D
:102D200000AF0346FB71FFF717FC202000F0FAFA12
:102D30005248FFF733FEFFF757FE182000F0F2FA73
:102D40001020FFF7F7FCFA20FFF7A2FB0F20FFF798
:102D5000F1FCFFF749FE182000F0E4FA0720FFF726
:102D6000E9FCFA20FFF794FB0E20FFF7E3FCFFF7E6
:102D70003BFE182000F0D6FA0520FFF7DBFCFA2016
:102D8000FFF786FB0620FFF7D5FCFFF7CBFB1020F3
:102D900000F0C8FAFFF7C6FB182000F0C3FA0820BD
:102DA000FFF7C8FC3220FFF773FB0920FFF7C2FCD6
:102DB0006420FFF76DFB0A20FFF7BCFC9620FFF7AD
:102DC00067FB0B20FFF7B6FCC820FFF761FB0C2068
:102DD000FFF7B0FCFA20FFF75BFB0D20FFF7AAFC22
:102DE000FFF702FE182000F09DFA0020FFF7A2FC7A
:102DF0003220FFF74DFB0120FFF79CFC6420FFF71A
:102E000047FB0220FFF796FC9620FFF741FB0320CB
:102E1000FFF790FCC820FFF73BFB0420FFF78AFC7C
:102E2000FFF780FB102000F07DFAFFF77BFB1820F6
:102E300000F078FA4FF6FF70FFF7C4FAFB79112B18
:102E40000AD00F48FFF7AAFDFB791846FFF772FC7E
:102E50000C48FFF7A3FD08E00B48FFF79FFD0E208D
:102E6000FFF768FC0948FFF799FDFFF75BFBFFF7E9
:102E7000ABFD00BF0837BD4680BD00BF2063000822
:102E8000986200083063000838630008486300084F
:102E900080B588B000AFF860B9607A60FFF75CFB7E
:102EA000202000F03FFA4E48FFF778FDFFF79CFD29
:102EB0007B68032B0ADC0023FB61BB68072B02DD68
:102EC0000723BB6119E0BB68BB6116E0BB68043B2C
:102ED0007A689A420BDDBB68062B03DDBB68073BB3
:102EE000FB6101E00023FB61BB68BB6105E07B681F
:102EF000033BFB617B680433BB61FB697B6137E0AB
:102F00007A697B689A4218D047F6EF30FFF75AFA91
:102F10000020FFF767FA182000F004FA7B699B0095
:102F2000FA6813441B681846FFF738FD4FF6FF7028
:102F3000FFF748FAFFF7F6FA17E04FF6FF70FFF7D2
:102F400041FA4FF48060FFF74DFA202000F0EAF9D3
:102F50007B699B00FA6813441B681846FFF71EFD47
:102F60000020FFF73FFAFFF7DDFA7B6901337B6151
:102F70007A69BB699A42C3DB182000F0D3F90023B9
:102F80003B6104E0FFF7CEFA3B6901333B61BA696C
:102F9000FB69D31AC3F107033A699A42F2DB4FF691
:102FA000FF70FFF70FFA182000F0BCF90D48FFF78B
:102FB000F5FC0C20FFF7BEFB0B48FFF7EFFC0420ED
:102FC000FFF7B8FB0948FFF7E9FC0E20FFF7B2FB5B
:102FD000FFF7A8FAFFF7F8FC00BF2037BD4680BD19
:102FE0005863000870630008786300087C63000879
:102FF00080B584B000AF0346FB80FFF7ADFA082030
:1030000000F090F90021E820FFF7FCF92C20FFF7F1
:1030100089F90023FB600FE00023BB6006E0FB881A
:103020001846FFF7A7F9BB680133BB60BB68EF2BFD
:10303000F5DDFB680133FB60FB68B3F5A07FEBDBDC
:1030400000BF1037BD4680BD80B584B000AFF860CA
:10305000B9601346FB80002000F064F9BB689BB2A6
:10306000FA6892B211461846FFF7CCF92C20FFF708
:1030700059F9FB881846FFF77DF900BF1037BD46A8
:1030800080BD80B58AB000AFF860B9601346FB80A0
:10309000FB88002B1ED1FB6801337B6214E0BB6808
:1030A00001333B6208E0FB881A46396A786AFFF709
:1030B000CBFF3B6A01333B62BB6809333A6A9A42F1
:1030C000F1DB7B6A01337B62FB6809337A6A9A42DF
:1030D000E5DB55E0FB680233FB6114E0BB680233BB
:1030E000BB6108E0FB881A46B969F869FFF7ACFFD5
:1030F000BB690133BB61BB680833BA699A42F1DB33
:10310000FB690133FB61FB680833FA699A42E5DB2E
:10311000FB6801337B6112E0BB6801334FF6FF723D
:1031200019467869FFF790FFBB68083348F21042F0
:1031300019467869FFF788FF7B6901337B61FB687B
:1031400009337A699A42E7DBBB6801333B6112E0DD
:10315000FB6801334FF6FF7239691846FFF774FFB9
:10316000FB68083348F2104239691846FFF76CFFD4
:103170003B6901333B61BB6809333A699A42E7DB3B
:1031800000BF2837BD4680BD80B584B000AF7860F1
:10319000FFF7E2F9182000F0C5F8EB210020FFF757
:1031A00031F9FFF7BFF9214B1B88EB211846FFF7D8
:1031B00029F97B68002B17DB07F108030A2219465F
:1031C000786802F009F81A48FFF7E8FBFFF7AAF958
:1031D000164B1B88EB211846FFF714F907F108037B
:1031E0001846FFF7DBFB0DE01248FFF7D7FBFFF7B0
:1031F00099F90E4B1B88EB211846FFF703F90E488F
:10320000FFF7CCFB00F0C8F803469BB29B009BB2D3
:10321000EB211846FFF7F6F80848FFF7BFFBFFF76A
:1032200081F900BF1037BD4680BD00BF5C020020A1
:10323000886300089063000898630008A063000892
:1032400080B500AF0020FFF7D3FEFFF785F9182007
:1032500000F068F8FFF766F90B20FFF76BFA2348D8
:10326000FFF79CFBFFF75EF9082000F05BF8FFF723
:1032700059F9182000F056F80D20FFF75BFA1C48AA
:10328000FFF78CFBFFF74EF9082000F04BF8FFF733
:1032900049F9182000F046F80C20FFF74BFA1548C2
:1032A000FFF77CFBFFF73EF9082000F03BF8FFF743
:1032B00039F9182000F036F80620FFF73BFA0E48DF
:1032C000FFF76CFBFFF72EF9082000F02BF8FFF753
:1032D00029F9182000F026F80E20FFF72BFA0748EE
:1032E000FFF75CFBFFF71EF900BF80BDA863000875
:1032F000B0630008BC630008C8630008D06300081E
:1033000080B500AFFFF728F9202000F00BF8044843
:10331000FFF744FBFFF706F9FFF756FB00BF80BD40
:10332000D863000880B483B000AF0346FB71184A2D
:10333000FB791370FB79202B14D0202B06DC102B8B
:1033400010D0182B0ED0082B0CD01BE0402B0DD02A
:10335000402B02DC302B09D014E0482B0AD0602B24
:103360000CD00FE00B4B01221A600BE0094B02223C
:103370001A6007E0074B03221A6003E0054B0422A2
:103380001A6000BF00BF0C37BD4680BC704700BF4D
:10339000640200206802002080B400AF024B1B785A
:1033A0001846BD4680BC70476402002080B400AF60
:1033B000104B1B78202B13D0202B06DC102B0DD0AC
:1033C000182B0FD0082B07D00EE0482B0AD0602B0B
:1033D00008D0302B06D007E0074B06E0074B04E08F
:1033E000074B02E0074B00E0034B1846BD4680BC8C
:1033F000704700BF64020020906A000894780008BB
:10340000CCB300083490000880B400AF024B1B68B6
:103410001846BD4680BC70476802002080B483B067
:1034200000AF0346FB71FB79034A52F8233018467C
:103430000C37BD4680BC70474C00002080B500AF03
:10344000002000F005F8012000F002F800BF80BD68
:1034500080B483B000AF0346FB71FB79002B02D030
:10346000012B07D00DE0094B5B69084A23F4007378
:10347000536106E0054B5B69044A23F48073536192
:1034800000BF00BF0C37BD4680BC70470004004839
:1034900080B400AF294BDB6C284A43F01F03D36490
:1034A0004FF090431B684FF0904223F07F7323F45A
:1034B000403313604FF090431B684FF0904243F04D
:1034C000AA7343F4803313601D4B1E4A1A601C4BD1
:1034D0001B681B4A23F440631360194B0122DA6016
:1034E000194B1A4A1A60184B45F25552DA60164BBE
:1034F00010225A62164B1B68154A23F4402323F00E
:10350000F3031360124B1B68114A43F4002343F08A
:10351000500313600E4B20225A620D4B5B690C4A1C
:1035200043F0040353610A4B0122DA60094B4FF068
:1035300055321A6000BFBD4680BC70470010024083
:103540000004004840010511001000480000FBFF86
:1035500000080048000C004880B582B000AF7860D9
:10356000074B5B69064A83F0080353614FF4FA7214
:103570000021044800F078FE00BF0837BD4680BD3A
:10358000000800485935000880B500AF154B1B688E
:10359000144A43F48033136000BF124B1B6803F4DA
:1035A0000033002BF9D00F4B0F4ADA600D4B1B682C
:1035B0000C4A43F08073136000BF0A4B1B6803F092
:1035C0000073002BF9D0074B03229A6000BF054B14
:1035D0009B6803F00C030C2BF9D1FEF741FD00BFF3
:1035E00080BD00BF00100240030F000380B582B011
:1035F00000AF7860114B1B68002B07D1FFF7FFF974
:10360000322200210E4800F02FFE0EE00B4B1B680B
:10361000042B08D8FFF7FCF94FF47A720021084810
:1036200000F022FE01E0FEF733FA044B1B68013381
:10363000024A136000BF0837BD4680BD6C020020FF
:10364000ED35000880B582B000AF78603960FFF7D3
:103650009BFF174A17494FF47A7000F0A3FDFFF75C
:1036600017FF00F005FA00F05DF8FFF7E7FEFEF740
:10367000D7FD4FF4FA7200210F4800F0F5FD00F07D
:103680007FFF03461121184601F0ECFA05220021C4
:103690000A4800F0E9FD64220021094800F0E4FD39
:1036A00000F0A8FD00BF18460837BD4680BD00BF2A
:1036B000514100080941000859350008894B0008AC
:1036C000ED35000880B400AF124B1B6E114A43F475
:1036D00000631366104B60229A610F4B01221A623D
:1036E0000D4B00229A620D4B1B680D4AA2FB03236F
:1036F000DB0B094A013BD362074B0A225A63064B94
:103700005B6C054A43F40043536400BFBD4680BC74
:10371000704700BF00100240002C0140480000200C
:103720006BCA5F6B80B500AFFFF7CCFF00BF80BDF9
:1037300080B485B000AF0346FB800D4B5B6BFB8113
:103740006423BB81FA88B989FB89CB1A9A4202DDCE
:10375000BB89FB8103E0FA89FB881344FB81044A9F
:10376000FB89536300BF1437BD4680BC704700BF60
:10377000002C014080B485B000AF0346FB800B4BAA
:103780005B6BFB81FA88FB899A4202D90023FB819B
:1037900003E0FA89FB88D31AFB81044AFB8953634F
:1037A00000BF1437BD4680BC704700BF002C0140ED
:1037B00080B400AF074B5B69064A43F48053536102
:1037C000054B1B68044A43F00103136000BFBD466C
:1037D00080BC704700040048002C014080B400AF5A
:1037E000074B1B68064A23F001031360054B5B6916
:1037F000044A23F48053536100BFBD4680BC704728
:10380000002C01400004004880B483B000AF0346A0
:10381000FB71FB7903F01F02064997F907305B093A
:10382000012000FA02F241F8232000BF0C37BD4608
:1038300080BC704700E100E080B500AF174B9B6D86
:10384000164A43F012039365154B4FF4C042DA61F8
:10385000134B20221A60124B00221A61104B4FF4B6
:1038600080521A620E4B00229A620D4B0022DA62DD
:103870000B4B5B6C0A4A43F400435364094B1B68CF
:10388000094A0A49A1FB03139B09D3621D20FFF7D4
:10389000BBFF3620FFF7B8FF00BF80BD001002401D
:1038A000000400404800002000100040D34D62108A
:1038B00080B483B000AF7860034A7B68D36200BFF6
:1038C0000C37BD4680BC70470004004080B483B014
:1038D00000AF7860034A7B68136400BF0C37BD46B5
:1038E00080BC70470004004080B485B000AF7860B1
:1038F000094B1B68094AA2FB03239B0CFB607B68F6
:10390000FA6802FB03F3064AA2FB03231B091846CD
:103910001437BD4680BC70474800002083DE1B433F
:10392000CDCCCCCC80B400AF094B00221A80094B1F
:103930001B68084A43F001031360064BDB68054A25
:1039400043F00103D36000BFBD4680BC704700BF99
:10395000700200200010004080B400AF0F4B1B68C5
:103960000E4A23F0010313600C4BDB680B4A23F073
:103970000103D3600A4B1B68094A23F0010313605B
:10398000074BDB68064A23F00103D360054B002296
:103990001A7000BFBD4680BC704700BF00040040E5
:1039A000001000408502002080B582B000AF786032
:1039B00039607868FFF798FF03461846FFF778FFED
:1039C0003B68072B1ED8194A3B6813441B781A46DC
:1039D0007B685B0A053303FB02F31846FFF784FF9D
:1039E0000246134B1A60124B1B68DB08114A136026
:1039F000104B1B68DB08104A13600F4B1B68DB0879
:103A00000E4A13600E4B0C221A700E4B1B680D4AA7
:103A100043F0010313600B4BDB680A4A43F00103D8
:103A2000D36000BF0837BD4680BD00BF10BF00088F
:103A300074020020780200207C0200208002002016
:103A4000840200200004004080B400AF074B1B68D4
:103A5000064A23F001031360044BDB68034A23F09A
:103A60000103D36000BFBD4680BC70470004004026
:103A700080B500AF064B00221A80064B03221A7055
:103A8000054B00221A70FFF7D7FE00BF80BD00BFB4
:103A900070020020720200208502002080B483B0F2
:103AA00000AF0346FB71FB79072B02D8034AFB7971
:103AB000137000BF0C37BD4680BC704772020020F7
:103AC00080B400AF024B1B781846BD4680BC7047DF
:103AD0007202002080B500AF054B1B78002B04D18B
:103AE000034B01221A70FFF71DFF00BF80BD00BF0E
:103AF0008502002080B500AF054B1B78002B04D158
:103B0000034B02221A70FFF70DFF00BF80BD00BFFC
:103B10008502002080B500AF054B1B78042B04D034
:103B2000034B04221A70FFF7FDFE00BF80BD00BFEB
:103B30008502002080B500AF054B1B78033B012BAD
:103B400002D8FFF709FF00E000BF00BF80BD00BF43
:103B50008502002080B500AF404B1B8840F29112D7
:103B600093424ED0B3F5C97F0DDA1F2B34D01F2BF3
:103B700004DC012B1ED0102B25D06CE0E72B34D0B9
:103B8000F62B3BD067E040F27722934254D0B3F556
:103B90001E7F07DAB3F5D07F3CD040F2AF129342DC
:103BA00041D058E040F2862293424ED0B3F5487F90
:103BB0004ED050E02A4B1B78043B194640F6B51016
:103BC000FFF7F2FE47E0264B1B78033B194640F611
:103BD000B510FFF7E9FE3EE0214B1B78013B19468B
:103BE00040F6B510FFF7E0FE35E01D4B1B78033BB8
:103BF000194640F6B510FFF7D7FE2CE0FFF724FF7B
:103C000029E0174B1B78043B194640F63B40FFF771
:103C1000CBFE20E0124B1B78033B194640F63B409D
:103C2000FFF7C2FE17E00E4B1B78013B194640F62A
:103C30003B40FFF7B9FE0EE0094B1B78033B1946EA
:103C400040F63B40FFF7B0FE05E0FFF7FDFE02E067
:103C5000FFF782FE00BF00BF80BD00BF70020020E2
:103C60007202002080B500AF194B1B88832B1DD03A
:103C7000832B04DC012B07D00B2B0ED025E08D2BE2
:103C80001DD0A12B1ED020E0124B1B78033B194600
:103C900040F6B510FFF788FE17E00E4B1B78013B8E
:103CA000194640F6B510FFF77FFE0EE0094B1B7872
:103CB000033B194640F6B510FFF776FE05E0FFF727
:103CC000C3FE02E0FFF748FE00BF00BF80BD00BF9B
:103CD000700200207202002080B582B000AFB24BAB
:103CE0001B88B3F5FA6F03D2AF4B1B88FB8004E04F
:103CF000AD4B1B88A3F5FA63FB80FB8840F20922D9
:103D0000934200F0E98040F20922934238DCFB2B19
:103D100000F0A980FB2B10DC142B00F08F80142BFB
:103D200004DC012B78D00A2B7FD038E1B52B00F0D2
:103D30008E80BF2B00F0948031E140F2AF129342AD
:103D400000F0AC80B3F5D87F0ADA40F20512934256
:103D500000F0928040F20F12934200F096801EE134
:103D600040F2F512934200F0A58040F2FF12934218
:103D700000F0A98040F2B912934200F098800EE161
:103D800040F29D42934200F0D78040F29D42934220
:103D90001EDC40F2E932934200F0B38040F2E93297
:103DA00093420ADC40F2A922934200F09E8040F246
:103DB000B322934200F0A280F1E040F2F33293424A
:103DC00000F0A88040F2FD32934200F0AC80E6E0C3
:103DD00040F2EC42934200F0C48040F2EC42934245
:103DE0000ADC40F2A742934200F0AF8040F2E24288
:103DF000934200F0AD80D2E040F29752934200F03F
:103E0000C28040F2A152934200F0C68040F2F642D6
:103E1000934200F0AF80C2E0644B1B78043B19462C
:103E200040F21E60FFF7C0FDB9E0604B1B78033B1A
:103E3000194640F21E60FFF7B7FDB0E05B4B1B7800
:103E4000013B194640F21E60FFF7AEFDA7E0574B5D
:103E50001B78033B194640F21E60FFF7A5FD9EE06C
:103E6000FFF7F2FD9BE0514B1B78043B194640F6EF
:103E7000E620FFF799FD92E04C4B1B78033B194677
:103E800040F6E620FFF790FD89E0484B1B78013BA8
:103E9000194640F6E620FFF787FD80E0434B1B788C
:103EA000033B194640F6E620FFF77EFD77E0FFF77B
:103EB000CBFD74E03D4B1B78043B194640F6A60051
:103EC000FFF772FD6BE0394B1B78033B194640F658
:103ED000A600FFF769FD62E0344B1B78013B1946F1
:103EE00040F6A600FFF760FD59E0304B1B78033B1E
:103EF000194640F6A600FFF757FD50E0FFF7A4FD76
:103F00004DE02A4B1B78043B194640F21E60FFF738
:103F10004BFD44E0254B1B78033B194640F21E60E5
:103F2000FFF742FD3BE0214B1B78013B194640F275
:103F30001E60FFF739FD32E01C4B1B78033B19462E
:103F400040F21E60FFF730FD29E0FFF77DFD26E01F
:103F5000164B1B78043B194640F6E620FFF724FD7C
:103F60001DE0124B1B78033B194640F6E620FFF795
:103F70001BFD14E00D4B1B78013B194640F6E62073
:103F8000FFF712FD0BE0094B1B78033B194640F687
:103F9000E620FFF709FD02E0FFF756FD00BF00BF76
:103FA0000837BD4680BD00BF7002002072020020AD
:103FB00080B500AF114B1B78022B06D0042B07D025
:103FC000012B08D1FFF7C6FD07E0FFF74BFE04E029
:103FD000FFF782FE01E0FFF7BFFC094B1B880133AE
:103FE0009AB2074B1A80064B1B8842F2107293421A
:103FF00002D9034B00221A8000BF80BD8502002039
:104000007002002080B582B000AF00237B60164BA9
:104010001B78002B06D0144B1B78013BDAB2124BF5
:104020001A7002E0104B0C221A7000233B6011E062
:104030000E4A3B6812F833200B4B1B789A4206D18C
:104040000A4A3B68DB0013445B681B687B603B6883
:1040500001333B603B68052BEADD7868FFF736FCEF
:1040600000BF0837BD4680BD84020020E0BE0008C6
:1040700080B483B000AF03463960FB7197F9073015
:10408000002B0BDA3B68DAB20C49FB7903F00F0323
:10409000043B1201D2B20B441A7609E03B68DAB253
:1040A000074997F907301201D2B20B4483F8002375
:1040B00000BF0C37BD4680BC704700BF00ED00E07C
:1040C00000E100E080B582B000AF78607B68013B22
:1040D000B3F1807F01D301230FE00A4A7B68013BE3
:1040E00053600F214FF0FF30FFF7C2FF054B002256
:1040F0009A60044B07221A60002318460837BD4611
:1041000080BD00BF10E000E080B582B000AF7860F5
:1041100039600D4B00229A600B4B00221A600A4B4B
:1041200000225A60084B01221A73074A3B68136148
:10413000064B1A687B68B2FBF3F31846FFF7C2FF21
:1041400000BF0837BD4680BD88020020480000201F
:1041500080B483B000AF084B1A68074B5B68D31A72
:104160007B60054B1B68044A53607B6818460C371C
:10417000BD4680BC704700BF8802002080B500AFFC
:10418000044B1B680133034A1360024B1B699847B9
:1041900000BF80BD8802002080B400AF00BFBD46D4
:1041A00080BC704780B586B000AFF860B9607A60B7
:1041B00000237B6109E00C4A7B691B0113440C332B
:1041C00000221A707B6901337B617B69132BF2D962
:1041D000BB680649F8689847054A7B68136000BFCA
:1041E0001837BD4680BD00BF9C02002099410008E1
:1041F000E003002080B584B000AF00F05FF9002339
:10420000FB6026E072B6174AFB681B0113440C33AF
:104210001B78012B19D1134AFB681B01134404338B
:104220001B687B600F4AFB681B01134408331B6843
:104230003B600C4AFB681B0113440C3300221A70CC
:1042400062B67B683868984700E062B6FB68013365
:10425000FB60FB68132BD5D900F0EAF8B860BB68A7
:10426000002BCAE79C02002080B586B000AFF86042
:10427000B9607A6072B600F0BBF878617B69132B85
:1042800025D800F01BF9154A7B691B011344043340
:10429000FA681A60114A7B691B0113440833BA6833
:1042A0001A600E4A7B691B0113447A681A607B68A6
:1042B000002B01D0022100E00121084A7B691B018B
:1042C00013440C330A461A70054B01221A7062B669
:1042D0007B6918461837BD4680BD00BF9C02002090
:1042E000DC03002080B485B000AF7860396072B61E
:1042F0000023FB607B68132B26D8174A7B681B01C1
:10430000134404331B683A689A421DD1124A7B68F1
:104310001B01134400221A600F4A7B681B011344DF
:10432000043300221A600C4A7B681B0113440C33CF
:1043300000221A70084A7B681B01134408334DF6AB
:104340001D621A600123FB6062B6FB6818461437D1
:10435000BD4680BC704700BF9C02002080B485B081
:1043600000AF786072B60023FB600023BB6032E0D0
:104370001E4ABB681B0113440C331B78002B27D04B
:104380001A4ABB681B01134404331B687A689A42BB
:104390001ED1164ABB681B0113440C3300221A704D
:1043A000124ABB681B011344043300221A600F4AEF
:1043B000BB681B01134400221A600C4ABB681B0136
:1043C0001344083340F6E1521A60FB680133FB6086
:1043D000BB680133BB60BB68132BC9DD62B6FB68E9
:1043E00018461437BD4680BC704700BF9C020020B1
:1043F00080B483B000AF00237B6000237B600AE0C1
:104400000A4A7B681B0113440C331B78002B06D02F
:104410007B6801337B607B68132BF1D900E000BF20
:104420007B6818460C37BD4680BC70479C02002054
:1044300080B483B000AF72B64FF0FF337B600023CF
:104440003B6024E01B4A3B681B0113440C331B7880
:10445000022B0ED1174A3B681B0113441B687A6874
:104460009A4211D9134A3B681B0113441B687B60B5
:104470000AE0104A3B681B0113440C331B78012BE4
:1044800002D100237B6005E03B6801333B603B6861
:10449000132BD7D97B68002B0CBF01230023DAB282
:1044A000054B1A7062B67B6818460C37BD4680BC57
:1044B000704700BF9C020020DC03002080B582B062
:1044C00000AF72B62B4B1B68984738603B68002BD7
:1044D0004BD000237B6045E0274A7B681B011344D7
:1044E0000C331B78022B3AD1234A7B681B011344FF
:1044F0001B68002B1AD0204A7B681B0113441B68E1
:104500003A689A420CD21C4A7B681B0113441A6811
:104510003B68D21A18497B681B010B441A6005E0FE
:10452000154A7B681B01134400221A60124A7B68FB
:104530001B0113441B68002B11D10F4A7B681B0120
:10454000134404331B68002B09D00C4B01221A7052
:10455000094A7B681B0113440C3301221A707B68E3
:1045600001337B607B68132BB6D962B600BF083776
:10457000BD4680BDE00300209C020020DC0300203B
:1045800080B400AF024B1846BD4680BC704700BFE8
:1045900018BF000880B483B000AF03460A46FB7121
:1045A0001346BB7100BF0C37BD4680BC704780B559
:1045B00082B000AF0346FB7100F074FA0146FB794C
:1045C000012202FA03F30B40002B14BF0123002346
:1045D000DBB218460837BD4680BD80B582B000AF5B
:1045E0000346FB71FB7900211846FFF7D3FF00BF9C
:1045F0000837BD4680BD80B582B000AF0346FB7171
:10460000FB7901211846FFF7C5FF00BF0837BD46FB
:1046100080BD80B582B000AF0346FB71FB790221FB
:104620001846FFF7B7FF00BF0837BD4680BD80B50D
:1046300082B000AF0346FB71FB7903211846FFF7F8
:10464000A9FF00BF0837BD4680BD80B582B000AF6E
:104650000346FB71FB7904211846FFF79BFF00BF5F
:104660000837BD4680BD80B582B000AF0346FB7100
:10467000FB7905211846FFF78DFF00BF0837BD46BF
:1046800080BD80B582B000AF0346FB71FB79062187
:104690001846FFF77FFF00BF0837BD4680BD80B5D5
:1046A00082B000AF0346FB71FB7907211846FFF784
:1046B00071FF00BF0837BD4680BD80B582B000AF36
:1046C0000346FB71FB7908211846FFF763FF00BF23
:1046D0000837BD4680BD80B582B000AF0346FB7190
:1046E000FB7909211846FFF755FF00BF0837BD4683
:1046F00080BD80B582B000AF0346FB71FB790A2113
:104700001846FFF747FF00BF0837BD4680BD80B59C
:1047100082B000AF0346FB71FB790B211846FFF70F
:1047200039FF00BF0837BD4680BD80B582B000AFFD
:104730000346FB71FB790C211846FFF72BFF00BFE6
:104740000837BD4680BD80B582B000AF0346FB711F
:10475000FB790D211846FFF71DFF00BF0837BD4646
:1047600080BD80B582B000AF0346FB71FB790E219E
:104770001846FFF70FFF00BF0837BD4680BD80B564
:1047800082B000AF0346FB71FB790F211846FFF79B
:1047900001FF00BF0837BD4680BD80B582B000AFC5
:1047A0000346FB71FB7910211846FFF7F3FE00BFAB
:1047B0000837BD4680BD80B500AF0020FFF7F7FE8B
:1047C0000346184680BD80B500AF0120FFF7EFFE1D
:1047D0000346184680BD80B500AF0220FFF7E7FE14
:1047E0000346184680BD80B500AF0320FFF7DFFE0B
:1047F0000346184680BD80B500AF0420FFF7D7FE02
:104800000346184680BD80B500AF0520FFF7CFFEF8
:104810000346184680BD80B500AF0620FFF7C7FEEF
:104820000346184680BD80B500AF0720FFF7BFFEE6
:104830000346184680BD80B500AF0820FFF7B7FEDD
:104840000346184680BD80B500AF0920FFF7AFFED4
:104850000346184680BD80B500AF0A20FFF7A7FECB
:104860000346184680BD80B500AF0B20FFF79FFEC2
:104870000346184680BD80B500AF0C20FFF797FEB9
:104880000346184680BD80B500AF0D20FFF78FFEB0
:104890000346184680BD80B500AF0E20FFF787FEA7
:1048A0000346184680BD80B500AF0F20FFF77FFE9E
:1048B0000346184680BD80B500AF1020FFF777FE95
:1048C0000346184680BD000080B582B000AF786016
:1048D0000348FFF743FD00BF0837BD4680BD00BF5A
:1048E000C948000880B582B000AF78600348FFF780
:1048F00035FD00BF0837BD4680BD00BFE548000854
:1049000080B582B000AF78600348FFF727FD00BF95
:104910000837BD4680BD00BF0149000880B582B0A0
:1049200000AF78600348FFF719FD00BF0837BD46A8
:1049300080BD00BF1D49000880B582B000AF78601F
:104940000348FFF70BFD00BF0837BD4680BD00BF21
:104950003949000880B582B000AF78600348FFF79E
:10496000FDFC00BF0837BD4680BD00BF55490008AB
:1049700080B582B000AF78600348FFF7EFFC00BF5E
:104980000837BD4680BD00BF7149000880B582B0C0
:1049900000AF78600348FFF7E1FC00BF0837BD4671
:1049A00080BD00BF8D49000880B582B000AF78603F
:1049B0000348FFF7D3FC00BF0837BD4680BD00BFEA
:1049C000A949000880B582B000AF78600348FFF7BE
:1049D000C5FC00BF0837BD4680BD00BFC549000803
:1049E00080B582B000AF78600348FFF7B7FC00BF26
:1049F0000837BD4680BD00BFE149000880B582B0E0
:104A000000AF78600348FFF7A9FC00BF0837BD4638
:104A100080BD00BFFD49000880B582B000AF78605E
:104A20000348FFF79BFC00BF0837BD4680BD00BFB1
:104A3000194A000880B582B000AF78600348FFF7DC
:104A40008DFC00BF0837BD4680BD00BF354A000859
:104A500080B582B000AF78600348FFF77FFC00BFED
:104A60000837BD4680BD00BF514A000880B582B0FE
:104A700000AF78600348FFF771FC00BF0837BD4600
:104A800080BD00BF6D4A000880B582B000AF78607D
:104A90000348FFF763FC00BF0837BD4680BD00BF79
:104AA000894A000880B400AF024B1B681846BD4617
:104AB00080BC7047E403002080B483B000AF054B96
:104AC0001B69DBB27B607B6818460C37BD4680BC37
:104AD000704700BF0010004880B400AF064B1B6950
:104AE00003F02003002B01D0002300E0012318462F
:104AF000BD4680BC704700BF0004004880B483B04E
:104B000000AF0346FB71FB79002B02D0012B04D0D0
:104B100007E0064B064A9A6103E0044B054A9A6196
:104B200000BF00BF0C37BD4680BC70470004004882
:104B3000080010001000080080B584B000AF786055
:104B4000104B1B687A685340BB600E4A7B68136049
:104B50000023FB730FE0FB7B012202FA03F31A46EA
:104B6000BB681340002B03D0FB7B184600F03EF9D6
:104B7000FB7B0133FB73FB7B102BECD900BF1037A1
:104B8000BD4680BDE403002080B582B000AF7860F0
:104B90002A4B1B78012B16D0022B28D0002B00D0DB
:104BA00048E0274B00221A600020FFF7A7FF234BA5
:104BB0001B780133DAB2214B1A70052200212148FB
:104BC000FFF752FB36E0FFF777FF02461C4B1A60F7
:104BD0000120FFF793FF194B1B780133DAB2174B13
:104BE0001A70052200211748FFF73EFB22E0FFF76D
:104BF00063FF03461A02124B1B681343104A1360EB
:104C0000FFF76AFF03461A040D4B1B6813430C4A57
:104C100013600B4B1B68DB43C3F310031846FFF70D
:104C20008BFF064B00221A70052200210548FFF772
:104C30001BFB00BF00BF0837BD4680BDE803002056
:104C4000EC030020894B000880B400AF044B5B6983
:104C5000034A23F00403536100BFBD4680BC704784
:104C60000008004890B585B000AF78600B46FB7037
:104C70004FF4CC7200214F4800F0B0FA0023FB73D0
:104C80008EE0FB7B1B017A6813441B7BBB73BA7BF2
:104C9000484913465B001344DB000B4408331B6890
:104CA000002B7AD1BA7B434913465B001344DB00E7
:104CB0000B4402221A70BA7B3E4913465B00134430
:104CC000DB000B44013302221A70BA7B39491346C8
:104CD0005B001344DB000B44023300221A70BA7BE2
:104CE000344913465B001344DB000B4403330022BA
:104CF0001A70BA7B2F4913465B001344DB000B4448
:104D0000043300221A70FB7B1B017A681344BA7BC0
:104D10009968284813465B001344DB0003440833BA
:104D20001960FB7B1B017A681344BA7B1968214820
:104D300013465B001344DB0003440C331960FB7B18
:104D40001B017A681344BA7B59681A4813465B0002
:104D50001344DB00034410331960BA7B1549134632
:104D60005B001344DB000B440C331B6801209847A5
:104D7000BA7B104913465B001344DB000B4410332D
:104D80001B68BC7B9847034619460A4A23465B00CA
:104D90002344DB0013440A461A70FB7B0133FB7388
:104DA000FA7BFB789A42FFF46CAF00BF1437BD4624
:104DB00090BD00BFF003002080B483B000AF034675
:104DC0003960FB713B68002B09D0FA79064913461C
:104DD0005B001344DB000B4408333A681A6000BFE1
:104DE0000C37BD4680BC7047F003002080B582B010
:104DF00000AF0346FB71FA79094913465B0013447F
:104E0000DB000B440C331B6800209847FB79002221
:104E100019460448FFF728FA00BF0837BD4680BD91
:104E2000F0030020914F000880B584B000AF034626
:104E3000FB710123FB73FA79544913465B00134459
:104E4000DB000B4410331B6898470346BB73FA79A9
:104E50004E4913465B001344DB000B4401331B78BF
:104E6000022B13D1FA79494913465B001344DB0046
:104E70000B44043300221A70FA79444913465B004C
:104E80001344DB000B440133BA7B1A70FA793F49B3
:104E900013465B001344DB000B4401331B78BA7BE1
:104EA0009A4264D1FA79394913465B001344DB0016
:104EB0000B4403331B780133D8B2344913465B00EB
:104EC0001344DB000B44033302461A70FA792F496E
:104ED00013465B001344DB000B4404331B7801339F
:104EE000D8B22A4913465B001344DB000B44043359
:104EF00002461A70FA79254913465B001344DB0019
:104F00000B4403331B780522934228D30023FB7301
:104F1000FA791E4913465B001344DB000B4403334C
:104F200000221A70F979FA7918480B465B000B4495
:104F3000DB00034401331878144913465B00134423
:104F4000DB000B4402461A70FA79104913465B00E5
:104F50001344DB000B44013302221A7001E00223E8
:104F6000FB73FA7913465B001344DB0009E0FA791E
:104F7000064913465B001344DB000B440333002255
:104F80001A70FB7B18461037BD4680BDF003002029
:104F900080B584B000AF78607B68FB73FB7B1846FC
:104FA000FFF742FF0346BB73BB7B022B06D1FB7BA3
:104FB000052219463B48FFF757F96FE0BB7B002BF2
:104FC0006CD1FA7B384913465B001344DB000B4479
:104FD0000C331B6801209847FA7B334913465B006A
:104FE0001344DB000B441B78012B1FD1FA7B2E49A5
:104FF00013465B001344DB000B44023301221A709A
:10500000FA7B294913465B001344DB000B4404334D
:105010001B78052202FB03F3C3F5C873BB60FB7B5F
:10502000BA6819462148FFF71FF937E0FA7B1E4995
:1050300013465B001344DB000B4402331B78002B48
:105040000CD0FA7B184913465B001344DB000B4479
:1050500014331B6815491846FFF744F9FA7B1249C7
:1050600013465B001344DB000B4408331868FA7BDB
:105070000D4913465B001344DB000B4402331B78DD
:1050800000221946FFF7F0F8FA7B074913465B0048
:105090001344DB000B44023300221A7000BF1037A8
:1050A000BD4680BD914F0008F0030020B1500008BC
:1050B00090B587B000AF78607B68FB75FA7D3549A5
:1050C00013465B001344DB000B4402331B78012BB7
:1050D0001DD1FA7D2F4913465B001344DB000B44BE
:1050E000023302221A7040F24C43FB60FB7DFC7DD0
:1050F000FA6819462848FFF7B7F80146254A2346BB
:105100005B002344DB001344143319603DE0FA7D57
:10511000204913465B001344DB000B4402331B7829
:10512000022B32D1FA7D1B4913465B001344DB008E
:105130000B44023303221A7040F24C433B61FB7D67
:10514000FC7D3A6919461448FFF78EF80146114A6A
:1051500023465B002344DB00134414331960FA7DBB
:105160000C4913465B001344DB000B4408331868FA
:10517000FA7D084913465B001344DB000B440233FD
:105180001B7800221946FFF76FF800BF1C37BD4699
:1051900090BD00BFF0030020B1500008014B18681B
:1051A000704700BF90000020931E222B10B50C46C4
:1051B00004D900230B701C46204610BD0A2A09D1D1
:1051C000002807DA2D230B7040420121214400F012
:1051D00065F8F1E70021F9E7FFF7E6BF024403466F
:1051E000934200D1704703F8011BF9E738B50D4B26
:1051F0001C68A36B05467BB9182000F0C7F80A4A63
:105200000A4BA063C0E90023094B83600B23838111
:1052100001220023C0E90423A36B00221D615A610F
:1052200038BD00BF900000200E33CDAB34126DE6C8
:10523000ECDE050038B5134B1C68A36B7BB9182056
:1052400000F0A4F8104A114BA063C0E90023104BF2
:1052500083600B23838101220023C0E90423A16B17
:105260000C480A694B690C4C504304FB0300A2FB39
:1052700004230344541C43F10005C1E9044525F00F
:10528000004038BD900000200E33CDAB34126DE6E7
:10529000ECDE05002DF451582D7F954CF0B51D4BDB
:1052A0008BB005460C466E4603F1200C1868596811
:1052B000374603C7083363453E46F7D118681B7964
:1052C0003B71931E222B38604FF0000304D92370EA
:1052D0001C4620460BB0F0BD661EB5FBF2F00AAFCF
:1052E00002FB10553D44591C15F8285C06F8015F77
:1052F000054668B9605423442246191B101B81429D
:10530000E7DD1178187802F8010B03F80119F4E7CA
:105310000B46E2E728C0000830B5141E05469BB0D6
:10532000184605DA8B232B604FF0FF301BB030BDE1
:105330004FF40273ADF80C3014BF04F1FF33234671
:10534000029305934FF6FF7300910491ADF80E3070
:1053500002461E9B6946284600F022F9431CBCBF4A
:105360008B232B60002CE1D0009B00221A70DDE71C
:1053700007B5009313460A46014603480068FFF745
:10538000CBFF03B05DF804FB90000020024B014608
:10539000186800F051B800BF9000002038B50546ED
:1053A000002945D051F8043C0C1F002BB8BFE4186D
:1053B00000F0FAFB1F4A1368104633B963601460AB
:1053C0002846BDE8384000F0F0BBA3420CD9216864
:1053D0006218934204BF1A685B68636004BF521886
:1053E00022600460ECE713465A680AB1A242FAD977
:1053F00019685818A0420BD12068014458188242FD
:105400001960DDD1106852685A6001441960D7E70D
:1054100002D90C232B60D3E7206821188A4204BFED
:1054200011685268626004BF091821605C60C7E7B8
:1054300038BD00BF8805002070B5CD1C25F00305E0
:1054400008350C2D38BF0C25002D064601DBA9427E
:1054500003D90C233360002070BD00F0A5FB214A66
:105460001468214691B9204C23681BB9304600F0DE
:1054700015FB20602946304600F010FB431C24D168
:105480000C233360304600F090FBE4E70B685B1BB5
:1054900018D40B2B0FD90B60CD50CC18304600F030
:1054A00084FB04F10B00231D20F00700C31AD3D0A6
:1054B0005A42E250D0E78C424B6816BF63601360DB
:1054C0000C46EBE70C464968CCE7C41C24F0030407
:1054D000A04205D0211A304600F0E0FA0130CFD0CA
:1054E0002560DBE7880500208C0500202DE9F047CA
:1054F0008E689E4282460C469046994637D88A89E5
:1055000012F4906F31D0256809696F1A656902231A
:1055100005EB450595FBF3F509F101033B449D427D
:1055200038BF1D46530530D52946FFF785FF06468F
:1055300050B90C23CAF80030A38943F04003A3817B
:105540004FF0FF30BDE8F0873A46216900F008FBD4
:10555000A38923F4906343F08003A38126616561EE
:105560003E44ED1B2660A5604E464E4500D94E4692
:1055700032464146206800F0FEFAA3689B1BA360F8
:1055800023681E4426600020DCE72A4600F00EFB5C
:1055900006460028E2D121695046FFF7FFFEC8E722
:1055A0002DE9F04F9DB0804603938B891D060C4674
:1055B00016460FD50B696BB94021FFF73DFF206000
:1055C000206128B90C23C8F800304FF0FF30C7E045
:1055D000402363610023099320238DF82930302371
:1055E0008DF82A304FF0010B37463D4615F8013B48
:1055F0000BB1252B3ED1B7EB060A0BD053463246F2
:1056000021464046FFF772FF013000F0A480099B5D
:10561000534409933B78002B00F09D8000234FF00A
:10562000FF32CDE90523049307938DF853301A9385
:105630002F46052217F8011B4F4800F041FA049B42
:10564000D0B9D90644BF20228DF853201A0744BF91
:105650002B228DF853202A782A2A15D0079A2F4614
:1056600000200A25394611F8013B303B092B4DD962
:10567000B8B10FE02F46B8E73F4A801A0BFA00F0A6
:10568000184304903D46D3E7039A111D1268039115
:10569000002A01DB079204E0524243F00203079222
:1056A00004933B782E2B0CD17B782A2B33D1039B90
:1056B0001A1D1B680392002BB8BF4FF0FF3302374F
:1056C00005932E4D39780322284600F0F9F938B1B8
:1056D0004023401B03FA00F0049B0343013704936B
:1056E000397827488DF8281006227E1C00F0E8F94A
:1056F000002838D0234B13BB039B073323F0070349
:1057000008330393099B4B4409936DE705FB023271
:1057100001200F46A6E700230137059319460A2505
:10572000384610F8012B303A092A03D9002BC8D08B
:105730000591C6E705FB012101230746F0E703AB0E
:1057400000932246104B04A94046AFF30080B0F10D
:10575000FF3F8146D6D1A3895B063FF536AF099856
:105760001DB0BDE8F08F03AB00932246064B04A9A1
:10577000404600F081F8EAE74DC0000853C0000839
:1057800057C0000800000000ED5400082DE9F04764
:1057900091461F468A680B69DDF820809342B8BFA6
:1057A0001346C9F8003091F8432006460C4612B162
:1057B0000133C9F800302368990642BFD9F8003098
:1057C0000233C9F80030256815F0060507D104F149
:1057D000190AE368D9F800209B1AAB4228DC94F838
:1057E00043302268003318BF012392062DD404F100
:1057F000430239463046C047013020D02368E5686F
:10580000D9F8002003F00603042B08BFAD1AA368E3
:1058100022690CBF25EAE57500259342C4BF9B1A97
:10582000ED184FF000091A344D451AD1002008E058
:105830000123524639463046C047013003D14FF06C
:10584000FF30BDE8F0870135C3E7E1185A1C30206E
:1058500081F84300224494F8451082F84310023343
:10586000C5E70123224639463046C0470130E6D01D
:1058700009F10109D8E700002DE9F04301F1430CDB
:105880000C46097E85B06E291746064698460C9A46
:1058900000F0B38022D8632936D00AD8002900F05E
:1058A000B980582900F0838004F1420584F8421041
:1058B00032E0642901D06929F6D120681368050611
:1058C00003F104012AD51B681160002B03DA2D2295
:1058D0005B4284F843206F480A2239E0732900F0C4
:1058E0009D8008D86F2920D07029DDD1236843F02E
:1058F0002003236003E0752917D07829D4D17823B9
:1059000084F84530644855E01368191D1B68116020
:1059100004F1420584F8423001238CE01B681160D9
:1059200010F0400F18BF1BB2CFE713682568181D91
:105930001060280601D51B6802E06806FBD51B88AD
:1059400054486F2914BF0A220822002184F843100A
:105950006568A560002DC0F29580216821F00401E2
:105960002160002B3DD1002D40F08E806546082A35
:105970000BD12368DB0708D5236962689A42DEBF32
:10598000302305F8013C05F1FF35ACEB050323613D
:10599000CDF800803B4603AA21463046FFF7F6FECD
:1059A00001304DD14FF0FF3005B0BDE8F0833948EC
:1059B00084F84510136821681D1D1B6815600A06D0
:1059C0000BD5CA0744BF41F0200121601BB92268F2
:1059D00022F0200222601022B7E74D0648BF9BB29A
:1059E000EFE76546B3FBF2F102FB1133C35C05F848
:1059F000013D0B460029F5D1B9E7136825686169B7
:105A0000181D106028061B6801D5196002E06A069F
:105A1000FBD51980002323616546B9E71368191D7A
:105A200011601D6862680021284600F049F808B13D
:105A3000401B606063682361002384F84330A7E75C
:105A400023692A4639463046C0470130AAD0236828
:105A50009B0713D4E068039B9842B8BF1846A3E79E
:105A600001234A4639463046C04701309AD00135B5
:105A7000E368039A9B1AAB42F2DCEBE7002504F1E2
:105A80001909F5E7002BACD1037884F8423004F112
:105A900042056CE75EC000086FC0000838B5064CD0
:105AA0000023054608462360FCF790F9431C02D109
:105AB000236803B12B6038BD9C0500200000000066
:105AC00001F0FF01102A2BDB10F0070F08D010F8AF
:105AD000013B013A8B422DD010F0070F42B3F6D1B3
